{
  "_format": "hh-sol-artifact-1",
  "contractName": "PhygitalA",
  "sourceName": "contracts/phygital/PhygitalA.sol",
  "abi": [
    {
      "inputs": [
        {
          "internalType": "string",
          "name": "name",
          "type": "string"
        },
        {
          "internalType": "string",
          "name": "symbol",
          "type": "string"
        },
        {
          "internalType": "address",
          "name": "tradeHubAddress",
          "type": "address"
        },
        {
          "internalType": "address",
          "name": "accessControlAddress",
          "type": "address"
        },
        {
          "internalType": "address",
          "name": "_tokenAddr",
          "type": "address"
        },
        {
          "internalType": "uint256[]",
          "name": "contractDetails",
          "type": "uint256[]"
        },
        {
          "internalType": "string",
          "name": "_baseUri",
          "type": "string"
        }
      ],
      "stateMutability": "nonpayable",
      "type": "constructor"
    },
    {
      "inputs": [],
      "name": "ApprovalCallerNotOwnerNorApproved",
      "type": "error"
    },
    {
      "inputs": [],
      "name": "ApprovalQueryForNonexistentToken",
      "type": "error"
    },
    {
      "inputs": [],
      "name": "BalanceQueryForZeroAddress",
      "type": "error"
    },
    {
      "inputs": [
        {
          "internalType": "uint256",
          "name": "numerator",
          "type": "uint256"
        },
        {
          "internalType": "uint256",
          "name": "denominator",
          "type": "uint256"
        }
      ],
      "name": "ERC2981InvalidDefaultRoyalty",
      "type": "error"
    },
    {
      "inputs": [
        {
          "internalType": "address",
          "name": "receiver",
          "type": "address"
        }
      ],
      "name": "ERC2981InvalidDefaultRoyaltyReceiver",
      "type": "error"
    },
    {
      "inputs": [
        {
          "internalType": "uint256",
          "name": "tokenId",
          "type": "uint256"
        },
        {
          "internalType": "uint256",
          "name": "numerator",
          "type": "uint256"
        },
        {
          "internalType": "uint256",
          "name": "denominator",
          "type": "uint256"
        }
      ],
      "name": "ERC2981InvalidTokenRoyalty",
      "type": "error"
    },
    {
      "inputs": [
        {
          "internalType": "uint256",
          "name": "tokenId",
          "type": "uint256"
        },
        {
          "internalType": "address",
          "name": "receiver",
          "type": "address"
        }
      ],
      "name": "ERC2981InvalidTokenRoyaltyReceiver",
      "type": "error"
    },
    {
      "inputs": [],
      "name": "MintERC2309QuantityExceedsLimit",
      "type": "error"
    },
    {
      "inputs": [],
      "name": "MintToZeroAddress",
      "type": "error"
    },
    {
      "inputs": [],
      "name": "MintZeroQuantity",
      "type": "error"
    },
    {
      "inputs": [],
      "name": "OwnerQueryForNonexistentToken",
      "type": "error"
    },
    {
      "inputs": [],
      "name": "OwnershipNotInitializedForExtraData",
      "type": "error"
    },
    {
      "inputs": [],
      "name": "TransferCallerNotOwnerNorApproved",
      "type": "error"
    },
    {
      "inputs": [],
      "name": "TransferFromIncorrectOwner",
      "type": "error"
    },
    {
      "inputs": [],
      "name": "TransferToNonERC721ReceiverImplementer",
      "type": "error"
    },
    {
      "inputs": [],
      "name": "TransferToZeroAddress",
      "type": "error"
    },
    {
      "inputs": [],
      "name": "URIQueryForNonexistentToken",
      "type": "error"
    },
    {
      "anonymous": false,
      "inputs": [
        {
          "indexed": true,
          "internalType": "address",
          "name": "owner",
          "type": "address"
        },
        {
          "indexed": true,
          "internalType": "address",
          "name": "approved",
          "type": "address"
        },
        {
          "indexed": true,
          "internalType": "uint256",
          "name": "tokenId",
          "type": "uint256"
        }
      ],
      "name": "Approval",
      "type": "event"
    },
    {
      "anonymous": false,
      "inputs": [
        {
          "indexed": true,
          "internalType": "address",
          "name": "owner",
          "type": "address"
        },
        {
          "indexed": true,
          "internalType": "address",
          "name": "operator",
          "type": "address"
        },
        {
          "indexed": false,
          "internalType": "bool",
          "name": "approved",
          "type": "bool"
        }
      ],
      "name": "ApprovalForAll",
      "type": "event"
    },
    {
      "anonymous": false,
      "inputs": [
        {
          "indexed": false,
          "internalType": "address",
          "name": "user",
          "type": "address"
        },
        {
          "indexed": false,
          "internalType": "uint256",
          "name": "tokenId",
          "type": "uint256"
        },
        {
          "indexed": false,
          "internalType": "bytes",
          "name": "uuid",
          "type": "bytes"
        },
        {
          "indexed": false,
          "internalType": "uint256",
          "name": "time",
          "type": "uint256"
        }
      ],
      "name": "AssetRegistered",
      "type": "event"
    },
    {
      "anonymous": false,
      "inputs": [
        {
          "indexed": true,
          "internalType": "uint256",
          "name": "fromTokenId",
          "type": "uint256"
        },
        {
          "indexed": false,
          "internalType": "uint256",
          "name": "toTokenId",
          "type": "uint256"
        },
        {
          "indexed": true,
          "internalType": "address",
          "name": "from",
          "type": "address"
        },
        {
          "indexed": true,
          "internalType": "address",
          "name": "to",
          "type": "address"
        }
      ],
      "name": "ConsecutiveTransfer",
      "type": "event"
    },
    {
      "anonymous": false,
      "inputs": [
        {
          "indexed": false,
          "internalType": "address",
          "name": "sender",
          "type": "address"
        },
        {
          "indexed": false,
          "internalType": "address",
          "name": "reciepient",
          "type": "address"
        },
        {
          "indexed": false,
          "internalType": "uint256",
          "name": "amount",
          "type": "uint256"
        }
      ],
      "name": "FundTransferred",
      "type": "event"
    },
    {
      "anonymous": false,
      "inputs": [
        {
          "indexed": false,
          "internalType": "uint256",
          "name": "currentIndex",
          "type": "uint256"
        },
        {
          "indexed": false,
          "internalType": "uint256",
          "name": "quantity",
          "type": "uint256"
        },
        {
          "indexed": true,
          "internalType": "address",
          "name": "creator",
          "type": "address"
        }
      ],
      "name": "PhygitalAAssetCreated",
      "type": "event"
    },
    {
      "anonymous": false,
      "inputs": [
        {
          "indexed": true,
          "internalType": "uint256",
          "name": "tokenId",
          "type": "uint256"
        },
        {
          "indexed": false,
          "internalType": "address",
          "name": "ownerOrApproved",
          "type": "address"
        }
      ],
      "name": "PhygitalAAssetDestroyed",
      "type": "event"
    },
    {
      "anonymous": false,
      "inputs": [
        {
          "indexed": true,
          "internalType": "address",
          "name": "from",
          "type": "address"
        },
        {
          "indexed": true,
          "internalType": "address",
          "name": "to",
          "type": "address"
        },
        {
          "indexed": true,
          "internalType": "uint256",
          "name": "tokenId",
          "type": "uint256"
        }
      ],
      "name": "Transfer",
      "type": "event"
    },
    {
      "anonymous": false,
      "inputs": [
        {
          "indexed": false,
          "internalType": "address",
          "name": "user",
          "type": "address"
        },
        {
          "indexed": false,
          "internalType": "uint256",
          "name": "updatedMaxMint",
          "type": "uint256"
        }
      ],
      "name": "UpdateAssetMaxMint",
      "type": "event"
    },
    {
      "anonymous": false,
      "inputs": [
        {
          "indexed": false,
          "internalType": "address",
          "name": "user",
          "type": "address"
        },
        {
          "indexed": false,
          "internalType": "uint256",
          "name": "updatedPrice",
          "type": "uint256"
        }
      ],
      "name": "UpdateAssetPrice",
      "type": "event"
    },
    {
      "anonymous": false,
      "inputs": [
        {
          "indexed": false,
          "internalType": "address",
          "name": "user",
          "type": "address"
        },
        {
          "indexed": false,
          "internalType": "uint256",
          "name": "tokenId",
          "type": "uint256"
        },
        {
          "indexed": false,
          "internalType": "enum PhygitalA.ItemStatus",
          "name": "assetStatus",
          "type": "uint8"
        },
        {
          "indexed": false,
          "internalType": "uint256",
          "name": "time",
          "type": "uint256"
        }
      ],
      "name": "UpdateAssetStatus",
      "type": "event"
    },
    {
      "inputs": [],
      "name": "accessMasterAddress",
      "outputs": [
        {
          "internalType": "address",
          "name": "",
          "type": "address"
        }
      ],
      "stateMutability": "view",
      "type": "function"
    },
    {
      "inputs": [
        {
          "internalType": "address",
          "name": "to",
          "type": "address"
        },
        {
          "internalType": "uint256",
          "name": "tokenId",
          "type": "uint256"
        }
      ],
      "name": "approve",
      "outputs": [],
      "stateMutability": "payable",
      "type": "function"
    },
    {
      "inputs": [
        {
          "internalType": "address",
          "name": "owner",
          "type": "address"
        }
      ],
      "name": "balanceOf",
      "outputs": [
        {
          "internalType": "uint256",
          "name": "",
          "type": "uint256"
        }
      ],
      "stateMutability": "view",
      "type": "function"
    },
    {
      "inputs": [
        {
          "internalType": "uint256",
          "name": "tokenId",
          "type": "uint256"
        }
      ],
      "name": "burn",
      "outputs": [],
      "stateMutability": "nonpayable",
      "type": "function"
    },
    {
      "inputs": [
        {
          "internalType": "uint256",
          "name": "tokenId",
          "type": "uint256"
        }
      ],
      "name": "burnAsset",
      "outputs": [],
      "stateMutability": "nonpayable",
      "type": "function"
    },
    {
      "inputs": [
        {
          "internalType": "uint256",
          "name": "quantity",
          "type": "uint256"
        }
      ],
      "name": "calculateRequiredPrice",
      "outputs": [
        {
          "internalType": "uint256",
          "name": "amount",
          "type": "uint256"
        }
      ],
      "stateMutability": "view",
      "type": "function"
    },
    {
      "inputs": [
        {
          "internalType": "address",
          "name": "reciever",
          "type": "address"
        },
        {
          "internalType": "uint256",
          "name": "quantity",
          "type": "uint256"
        }
      ],
      "name": "delegateMint",
      "outputs": [
        {
          "internalType": "uint256",
          "name": "",
          "type": "uint256"
        },
        {
          "internalType": "uint256",
          "name": "",
          "type": "uint256"
        }
      ],
      "stateMutability": "nonpayable",
      "type": "function"
    },
    {
      "inputs": [
        {
          "internalType": "uint256",
          "name": "tokenId",
          "type": "uint256"
        }
      ],
      "name": "getApproved",
      "outputs": [
        {
          "internalType": "address",
          "name": "",
          "type": "address"
        }
      ],
      "stateMutability": "view",
      "type": "function"
    },
    {
      "inputs": [
        {
          "internalType": "address",
          "name": "owner",
          "type": "address"
        },
        {
          "internalType": "address",
          "name": "operator",
          "type": "address"
        }
      ],
      "name": "isApprovedForAll",
      "outputs": [
        {
          "internalType": "bool",
          "name": "",
          "type": "bool"
        }
      ],
      "stateMutability": "view",
      "type": "function"
    },
    {
      "inputs": [],
      "name": "isRevealed",
      "outputs": [
        {
          "internalType": "bool",
          "name": "",
          "type": "bool"
        }
      ],
      "stateMutability": "view",
      "type": "function"
    },
    {
      "inputs": [],
      "name": "maxMint",
      "outputs": [
        {
          "internalType": "uint16",
          "name": "",
          "type": "uint16"
        }
      ],
      "stateMutability": "view",
      "type": "function"
    },
    {
      "inputs": [],
      "name": "maxSupply",
      "outputs": [
        {
          "internalType": "uint256",
          "name": "",
          "type": "uint256"
        }
      ],
      "stateMutability": "view",
      "type": "function"
    },
    {
      "inputs": [
        {
          "internalType": "uint256",
          "name": "quantity",
          "type": "uint256"
        }
      ],
      "name": "mint",
      "outputs": [
        {
          "internalType": "uint256",
          "name": "",
          "type": "uint256"
        },
        {
          "internalType": "uint256",
          "name": "",
          "type": "uint256"
        }
      ],
      "stateMutability": "payable",
      "type": "function"
    },
    {
      "inputs": [],
      "name": "name",
      "outputs": [
        {
          "internalType": "string",
          "name": "",
          "type": "string"
        }
      ],
      "stateMutability": "view",
      "type": "function"
    },
    {
      "inputs": [],
      "name": "nftPrice",
      "outputs": [
        {
          "internalType": "uint256",
          "name": "",
          "type": "uint256"
        }
      ],
      "stateMutability": "view",
      "type": "function"
    },
    {
      "inputs": [
        {
          "internalType": "uint256",
          "name": "tokenId",
          "type": "uint256"
        }
      ],
      "name": "ownerOf",
      "outputs": [
        {
          "internalType": "address",
          "name": "",
          "type": "address"
        }
      ],
      "stateMutability": "view",
      "type": "function"
    },
    {
      "inputs": [
        {
          "internalType": "uint256",
          "name": "",
          "type": "uint256"
        }
      ],
      "name": "phygitalAssets",
      "outputs": [
        {
          "internalType": "uint256",
          "name": "registerTime",
          "type": "uint256"
        },
        {
          "internalType": "bytes",
          "name": "phygitalId",
          "type": "bytes"
        },
        {
          "internalType": "enum PhygitalA.ItemStatus",
          "name": "status",
          "type": "uint8"
        }
      ],
      "stateMutability": "view",
      "type": "function"
    },
    {
      "inputs": [
        {
          "internalType": "bytes",
          "name": "",
          "type": "bytes"
        }
      ],
      "name": "phygitalIdCheck",
      "outputs": [
        {
          "internalType": "bool",
          "name": "",
          "type": "bool"
        }
      ],
      "stateMutability": "view",
      "type": "function"
    },
    {
      "inputs": [
        {
          "internalType": "uint256",
          "name": "tokenId",
          "type": "uint256"
        },
        {
          "internalType": "bytes",
          "name": "_phygitalID",
          "type": "bytes"
        }
      ],
      "name": "registerAssetId",
      "outputs": [],
      "stateMutability": "nonpayable",
      "type": "function"
    },
    {
      "inputs": [
        {
          "internalType": "uint256",
          "name": "",
          "type": "uint256"
        }
      ],
      "name": "rentables",
      "outputs": [
        {
          "internalType": "bool",
          "name": "isRentable",
          "type": "bool"
        },
        {
          "internalType": "address",
          "name": "user",
          "type": "address"
        },
        {
          "internalType": "uint64",
          "name": "expires",
          "type": "uint64"
        },
        {
          "internalType": "uint256",
          "name": "hourlyRate",
          "type": "uint256"
        }
      ],
      "stateMutability": "view",
      "type": "function"
    },
    {
      "inputs": [
        {
          "internalType": "string",
          "name": "uri",
          "type": "string"
        }
      ],
      "name": "reveal",
      "outputs": [],
      "stateMutability": "nonpayable",
      "type": "function"
    },
    {
      "inputs": [
        {
          "internalType": "uint256",
          "name": "tokenId",
          "type": "uint256"
        },
        {
          "internalType": "uint256",
          "name": "salePrice",
          "type": "uint256"
        }
      ],
      "name": "royaltyInfo",
      "outputs": [
        {
          "internalType": "address",
          "name": "",
          "type": "address"
        },
        {
          "internalType": "uint256",
          "name": "",
          "type": "uint256"
        }
      ],
      "stateMutability": "view",
      "type": "function"
    },
    {
      "inputs": [
        {
          "internalType": "address",
          "name": "from",
          "type": "address"
        },
        {
          "internalType": "address",
          "name": "to",
          "type": "address"
        },
        {
          "internalType": "uint256",
          "name": "tokenId",
          "type": "uint256"
        }
      ],
      "name": "safeTransferFrom",
      "outputs": [],
      "stateMutability": "payable",
      "type": "function"
    },
    {
      "inputs": [
        {
          "internalType": "address",
          "name": "from",
          "type": "address"
        },
        {
          "internalType": "address",
          "name": "to",
          "type": "address"
        },
        {
          "internalType": "uint256",
          "name": "tokenId",
          "type": "uint256"
        },
        {
          "internalType": "bytes",
          "name": "_data",
          "type": "bytes"
        }
      ],
      "name": "safeTransferFrom",
      "outputs": [],
      "stateMutability": "payable",
      "type": "function"
    },
    {
      "inputs": [
        {
          "internalType": "address",
          "name": "operator",
          "type": "address"
        },
        {
          "internalType": "bool",
          "name": "approved",
          "type": "bool"
        }
      ],
      "name": "setApprovalForAll",
      "outputs": [],
      "stateMutability": "nonpayable",
      "type": "function"
    },
    {
      "inputs": [
        {
          "internalType": "uint256",
          "name": "tokenId",
          "type": "uint256"
        },
        {
          "internalType": "enum PhygitalA.ItemStatus",
          "name": "_status",
          "type": "uint8"
        }
      ],
      "name": "setItemStatus",
      "outputs": [],
      "stateMutability": "nonpayable",
      "type": "function"
    },
    {
      "inputs": [
        {
          "internalType": "uint16",
          "name": "amount",
          "type": "uint16"
        }
      ],
      "name": "setMaxMint",
      "outputs": [],
      "stateMutability": "nonpayable",
      "type": "function"
    },
    {
      "inputs": [
        {
          "internalType": "uint256",
          "name": "amount",
          "type": "uint256"
        }
      ],
      "name": "setNFTPrice",
      "outputs": [],
      "stateMutability": "nonpayable",
      "type": "function"
    },
    {
      "inputs": [
        {
          "internalType": "bytes4",
          "name": "interfaceId",
          "type": "bytes4"
        }
      ],
      "name": "supportsInterface",
      "outputs": [
        {
          "internalType": "bool",
          "name": "",
          "type": "bool"
        }
      ],
      "stateMutability": "view",
      "type": "function"
    },
    {
      "inputs": [],
      "name": "symbol",
      "outputs": [
        {
          "internalType": "string",
          "name": "",
          "type": "string"
        }
      ],
      "stateMutability": "view",
      "type": "function"
    },
    {
      "inputs": [
        {
          "internalType": "uint256",
          "name": "tokenId",
          "type": "uint256"
        }
      ],
      "name": "tokenURI",
      "outputs": [
        {
          "internalType": "string",
          "name": "",
          "type": "string"
        }
      ],
      "stateMutability": "view",
      "type": "function"
    },
    {
      "inputs": [],
      "name": "totalSupply",
      "outputs": [
        {
          "internalType": "uint256",
          "name": "",
          "type": "uint256"
        }
      ],
      "stateMutability": "view",
      "type": "function"
    },
    {
      "inputs": [],
      "name": "tradeHub",
      "outputs": [
        {
          "internalType": "address",
          "name": "",
          "type": "address"
        }
      ],
      "stateMutability": "view",
      "type": "function"
    },
    {
      "inputs": [
        {
          "internalType": "address",
          "name": "from",
          "type": "address"
        },
        {
          "internalType": "address",
          "name": "to",
          "type": "address"
        },
        {
          "internalType": "uint256",
          "name": "tokenId",
          "type": "uint256"
        }
      ],
      "name": "transferFrom",
      "outputs": [],
      "stateMutability": "payable",
      "type": "function"
    },
    {
      "inputs": [
        {
          "internalType": "address",
          "name": "",
          "type": "address"
        }
      ],
      "name": "userBalance",
      "outputs": [
        {
          "internalType": "uint256",
          "name": "",
          "type": "uint256"
        }
      ],
      "stateMutability": "view",
      "type": "function"
    },
    {
      "inputs": [],
      "name": "version",
      "outputs": [
        {
          "internalType": "uint8",
          "name": "",
          "type": "uint8"
        }
      ],
      "stateMutability": "view",
      "type": "function"
    },
    {
      "inputs": [],
      "name": "withdraw",
      "outputs": [],
      "stateMutability": "nonpayable",
      "type": "function"
    }
  ],
  "bytecode": "0x60a06040523480156200001157600080fd5b5060405162002c7138038062002c7183398101604081905262000034916200040b565b868660046200004483826200058b565b5060056200005382826200058b565b5060016002555050601480546001600160a01b038087166001600160a01b031992831617909255600d8054888416620100000262010000600160b01b031990911617905560158054928616929091169190911790558151600414620000ff5760405162461bcd60e51b815260206004820152601860248201527f506879676974616c3a20496e76616c696420496e70757421000000000000000060448201526064015b60405180910390fd5b8160008151811062000115576200011562000657565b6020026020010151600c819055508160018151811062000139576200013962000657565b602090810291909101015160805262000176338360028151811062000162576200016262000657565b6020026020010151620001e960201b60201c565b816003815181106200018c576200018c62000657565b6020908102919091010151600d805461ffff191661ffff909216919091179055600a620001ba82826200058b565b5050600e80546001600160a01b0319166001600160a01b039490941693909317909255506200066d9350505050565b6127106001600160601b0382168110156200022a57604051636f483d0960e01b81526001600160601b038316600482015260248101829052604401620000f6565b6001600160a01b0383166200025657604051635b6cc80560e11b815260006004820152602401620000f6565b50604080518082019091526001600160a01b039092168083526001600160601b039091166020909201829052600160a01b90910217600055565b634e487b7160e01b600052604160045260246000fd5b604051601f8201601f191681016001600160401b0381118282101715620002d157620002d162000290565b604052919050565b600082601f830112620002eb57600080fd5b81516001600160401b0381111562000307576200030762000290565b60206200031d601f8301601f19168201620002a6565b82815285828487010111156200033257600080fd5b60005b838110156200035257858101830151828201840152820162000335565b506000928101909101919091529392505050565b80516001600160a01b03811681146200037e57600080fd5b919050565b600082601f8301126200039557600080fd5b815160206001600160401b03821115620003b357620003b362000290565b8160051b620003c4828201620002a6565b9283528481018201928281019087851115620003df57600080fd5b83870192505b848310156200040057825182529183019190830190620003e5565b979650505050505050565b600080600080600080600060e0888a0312156200042757600080fd5b87516001600160401b03808211156200043f57600080fd5b6200044d8b838c01620002d9565b985060208a01519150808211156200046457600080fd5b620004728b838c01620002d9565b97506200048260408b0162000366565b96506200049260608b0162000366565b9550620004a260808b0162000366565b945060a08a0151915080821115620004b957600080fd5b620004c78b838c0162000383565b935060c08a0151915080821115620004de57600080fd5b50620004ed8a828b01620002d9565b91505092959891949750929550565b600181811c908216806200051157607f821691505b6020821081036200053257634e487b7160e01b600052602260045260246000fd5b50919050565b601f8211156200058657600081815260208120601f850160051c81016020861015620005615750805b601f850160051c820191505b8181101562000582578281556001016200056d565b5050505b505050565b81516001600160401b03811115620005a757620005a762000290565b620005bf81620005b88454620004fc565b8462000538565b602080601f831160018114620005f75760008415620005de5750858301515b600019600386901b1c1916600185901b17855562000582565b600085815260208120601f198616915b82811015620006285788860151825594840194600190910190840162000607565b5085821015620006475787850151600019600388901b60f8161c191681555b5050505050600190811b01905550565b634e487b7160e01b600052603260045260246000fd5b6080516125e16200069060003960008181610720015261090801526125e16000f3fe60806040526004361061021a5760003560e01c806370a0823111610123578063a0712d68116100ab578063c87b56dd1161006f578063c87b56dd146106ee578063d5abeb011461070e578063e461c9b614610742578063e985e9c514610762578063f0f7d05d1461078257600080fd5b8063a0712d6814610662578063a22cb46514610675578063a4b1105214610695578063b88d4fde146106bb578063c2962bc7146106ce57600080fd5b8063882f08f3116100f2578063882f08f31461053e5780638c38431e146105795780638f08d44d1461059957806395d89b41146105b95780639874cd97146105ce57600080fd5b806370a08231146104a15780637501f741146104c15780637db79427146104ef57806381530b681461051e57600080fd5b806323b872dd116101a657806342966c681161017557806342966c68146104005780634c2612471461042057806354214f691461044057806354fd4d501461045a5780636352211e1461048157600080fd5b806323b872dd146103865780632a55205a146103995780633ccfd60b146103d857806342842e0e146103ed57600080fd5b8063081812fc116101ed578063081812fc146102e6578063095ea7b31461031e5780630aa7c854146103335780630d39fc811461035357806318160ddd1461036957600080fd5b80630103c92b1461021f57806301ffc9a71461025f578063049d01531461028f57806306fdde03146102c4575b600080fd5b34801561022b57600080fd5b5061024c61023a366004611de5565b60136020526000908152604090205481565b6040519081526020015b60405180910390f35b34801561026b57600080fd5b5061027f61027a366004611e16565b6107a2565b6040519015158152602001610256565b34801561029b57600080fd5b506102af6102aa366004611e33565b6107d3565b60408051928352602083019190915201610256565b3480156102d057600080fd5b506102d9610a11565b6040516102569190611ead565b3480156102f257600080fd5b50610306610301366004611ec0565b610aa3565b6040516001600160a01b039091168152602001610256565b61033161032c366004611e33565b610ade565b005b34801561033f57600080fd5b50600e54610306906001600160a01b031681565b34801561035f57600080fd5b5061024c600c5481565b34801561037557600080fd5b50600354600254036000190161024c565b610331610394366004611ed9565b610aee565b3480156103a557600080fd5b506103b96103b4366004611f15565b610c5d565b604080516001600160a01b039093168352602083019190915201610256565b3480156103e457600080fd5b50610331610d09565b6103316103fb366004611ed9565b610d38565b34801561040c57600080fd5b5061033161041b366004611ec0565b610d58565b34801561042c57600080fd5b5061033161043b366004611fc3565b610d63565b34801561044c57600080fd5b50600b5461027f9060ff1681565b34801561046657600080fd5b5061046f600181565b60405160ff9091168152602001610256565b34801561048d57600080fd5b5061030661049c366004611ec0565b610e65565b3480156104ad57600080fd5b5061024c6104bc366004611de5565b610e70565b3480156104cd57600080fd5b50600d546104dc9061ffff1681565b60405161ffff9091168152602001610256565b3480156104fb57600080fd5b5061050f61050a366004611ec0565b610eb6565b60405161025693929190612044565b34801561052a57600080fd5b50610331610539366004611ec0565b610f64565b34801561054a57600080fd5b5061027f61055936600461208c565b805160208183018101805160128252928201919093012091525460ff1681565b34801561058557600080fd5b506103316105943660046120c1565b61103c565b3480156105a557600080fd5b506103316105b4366004611ec0565b611162565b3480156105c557600080fd5b506102d96112aa565b3480156105da57600080fd5b506106296105e9366004611ec0565b600f602052600090815260409020805460019091015460ff82169161010081046001600160a01b031691600160a81b90910467ffffffffffffffff169084565b6040805194151585526001600160a01b03909316602085015267ffffffffffffffff909116918301919091526060820152608001610256565b6102af610670366004611ec0565b6112b9565b34801561068157600080fd5b50610331610690366004612103565b61134b565b3480156106a157600080fd5b50600d54610306906201000090046001600160a01b031681565b6103316106c936600461212f565b6113b7565b3480156106da57600080fd5b506103316106e9366004612197565b6113f8565b3480156106fa57600080fd5b506102d9610709366004611ec0565b6114e2565b34801561071a57600080fd5b5061024c7f000000000000000000000000000000000000000000000000000000000000000081565b34801561074e57600080fd5b5061033161075d3660046121bb565b611577565b34801561076e57600080fd5b5061027f61077d366004612202565b6117ec565b34801561078e57600080fd5b5061024c61079d366004611ec0565b61181a565b6000636ad56fd360e11b6001600160e01b03198316016107c457506001919050565b6107cd8261182a565b92915050565b60145460009081906001600160a01b0316636d70f7ae336040516001600160e01b031960e084901b1681526001600160a01b039091166004820152602401602060405180830381865afa15801561082e573d6000803e3d6000fd5b505050506040513d601f19601f820116820180604052508101906108529190612235565b6108775760405162461bcd60e51b815260040161086e90612252565b60405180910390fd5b60006108866002546000190190565b600d5490915061ffff16841115806108a25750600d5461ffff16155b6109065760405162461bcd60e51b815260206004820152602f60248201527f506879676974616c3a205175616e746974792073686f756c64206265206c657360448201526e1cc81d1a185b881b585e081b5a5b9d608a1b606482015260840161086e565b7f0000000000000000000000000000000000000000000000000000000000000000846109356002546000190190565b61093f91906122a9565b111561099c5760405162461bcd60e51b815260206004820152602660248201527f506879676974616c413a20457863656564696e67206d617820746f6b656e20736044820152657570706c792160d01b606482015260840161086e565b6109a68585611878565b600d546109c3906201000090046001600160a01b0316600161134b565b337f328ff68d0e66694e405c9f8fc906a346b345aa1f87ec216eaa82f2c654d0d34a6109f26002546000190190565b60408051918252602082018890520160405180910390a2949293505050565b606060048054610a20906122bc565b80601f0160208091040260200160405190810160405280929190818152602001828054610a4c906122bc565b8015610a995780601f10610a6e57610100808354040283529160200191610a99565b820191906000526020600020905b815481529060010190602001808311610a7c57829003601f168201915b5050505050905090565b6000610aae82611892565b610ac257610ac26333d1c03960e21b6118e0565b506000908152600860205260409020546001600160a01b031690565b610aea828260016118ea565b5050565b6000610af98261198d565b6001600160a01b039485169490915081168414610b1f57610b1f62a1148160e81b6118e0565b60008281526008602052604090208054610b4b8187335b6001600160a01b039081169116811491141790565b610b6d57610b5986336117ec565b610b6d57610b6d632ce44b5f60e11b6118e0565b8015610b7857600082555b6001600160a01b038681166000908152600760205260408082208054600019019055918716808252919020805460010190554260a01b17600160e11b17600085815260066020526040812091909155600160e11b84169003610c0a57600184016000818152600660205260408120549003610c08576002548114610c085760008181526006602052604090208490555b505b6001600160a01b0385168481887fddf252ad1be2c89b69c2b068fc378daa952ba7f163c4a11628f55a4df523b3ef600080a480600003610c5457610c54633a954ecd60e21b6118e0565b50505050505050565b60008281526001602090815260408083208151808301909252546001600160a01b038116808352600160a01b9091046001600160601b0316928201929092528291610cd25750604080518082019091526000546001600160a01b0381168252600160a01b90046001600160601b031660208201525b602081015160009061271090610cf1906001600160601b0316876122f6565b610cfb919061230d565b915196919550909350505050565b60405133904780156108fc02916000818181858888f19350505050158015610d35573d6000803e3d6000fd5b50565b610d53838383604051806020016040528060008152506113b7565b505050565b610d35816001611a2e565b6014546001600160a01b03166324d7806c336040516001600160e01b031960e084901b1681526001600160a01b039091166004820152602401602060405180830381865afa158015610db9573d6000803e3d6000fd5b505050506040513d601f19601f82011682018060405250810190610ddd9190612235565b610df95760405162461bcd60e51b815260040161086e90612252565b600b5460ff1615610e4c5760405162461bcd60e51b815260206004820152601f60248201527f436f6c6c656374696f6e20697320616c72656164792072657665616c65642100604482015260640161086e565b600b805460ff19166001179055600a610aea828261237d565b60006107cd8261198d565b60006001600160a01b038216610e9057610e906323d3ad8160e21b6118e0565b506001600160a01b031660009081526007602052604090205467ffffffffffffffff1690565b60116020526000908152604090208054600182018054919291610ed8906122bc565b80601f0160208091040260200160405190810160405280929190818152602001828054610f04906122bc565b8015610f515780601f10610f2657610100808354040283529160200191610f51565b820191906000526020600020905b815481529060010190602001808311610f3457829003601f168201915b5050506002909301549192505060ff1683565b6014546001600160a01b0316636d70f7ae336040516001600160e01b031960e084901b1681526001600160a01b039091166004820152602401602060405180830381865afa158015610fba573d6000803e3d6000fd5b505050506040513d601f19601f82011682018060405250810190610fde9190612235565b610ffa5760405162461bcd60e51b815260040161086e90612252565b600c81905560408051338152602081018390527fe4fe79a855bb953d57c217fb96867cc30beed4bf0ce6c2b1e7d2731ce74982ec91015b60405180910390a150565b813361104782610e65565b6001600160a01b031614806110d157506014546001600160a01b0316636d70f7ae336040516001600160e01b031960e084901b1681526001600160a01b039091166004820152602401602060405180830381865afa1580156110ad573d6000803e3d6000fd5b505050506040513d601f19601f820116820180604052508101906110d19190612235565b6110ed5760405162461bcd60e51b815260040161086e9061243d565b6000838152601160205260409020600201805483919060ff1916600183600481111561111b5761111b61200c565b02179055507f07c2cea5a1fbb990e885b52e8c51ce865a718fb8676e7169289a1c137d3d8b37338484426040516111559493929190612484565b60405180910390a1505050565b3361116c82610e65565b6001600160a01b0316146111ce5760405162461bcd60e51b815260206004820152602360248201527f506879676974616c413a2055736572206973206e6f74206173736574206f776e60448201526265722160e81b606482015260840161086e565b60008181526011602052604081206002015460ff1660048111156111f4576111f461200c565b1461124f5760405162461bcd60e51b815260206004820152602560248201527f506879676974616c413a2041737365742063616e6e6f742062652064657374726044820152646f7965642160d81b606482015260840161086e565b61125a816001611a2e565b600081815260016020526040812055807f2a5fd0bc4df8bf54012cb36761df3287ea7e3380367b791f6f6ad0506b500a0a336040516001600160a01b03909116815260200160405180910390a250565b606060058054610a20906122bc565b60008060006112cb6002546000190190565b336000908152601360205260408120805492935086929091906112ef9084906122a9565b909155506112ff90503385611878565b337f328ff68d0e66694e405c9f8fc906a346b345aa1f87ec216eaa82f2c654d0d34a61132e6002546000190190565b60408051918252602082018890520160405180910390a293915050565b3360008181526009602090815260408083206001600160a01b03871680855290835292819020805460ff191686151590811790915590519081529192917f17307eab39ab6107e8899845ad3d59bd9653f200f220920489ca2b5937696c31910160405180910390a35050565b6113c2848484610aee565b6001600160a01b0383163b156113f2576113de84848484611b70565b6113f2576113f26368d2bf6b60e11b6118e0565b50505050565b6014546001600160a01b0316636d70f7ae336040516001600160e01b031960e084901b1681526001600160a01b039091166004820152602401602060405180830381865afa15801561144e573d6000803e3d6000fd5b505050506040513d601f19601f820116820180604052508101906114729190612235565b61148e5760405162461bcd60e51b815260040161086e90612252565b600d805461ffff191661ffff83161790557f681fea8fe1457e6e31ea5cec63ed1685758afb352bc523a85590601a4b3382f833604080516001600160a01b03909216825261ffff8416602083015201611031565b60606114ed82611892565b61150157611501630a14c4b560e41b6118e0565b600061150b611c53565b600b5490915060ff161561152857611521611c53565b9392505050565b80516000036115465760405180602001604052806000815250611521565b8061155084611c62565b6040516020016115619291906124b7565b6040516020818303038152906040529392505050565b813361158282610e65565b6001600160a01b0316148061160c57506014546001600160a01b0316636d70f7ae336040516001600160e01b031960e084901b1681526001600160a01b039091166004820152602401602060405180830381865afa1580156115e8573d6000803e3d6000fd5b505050506040513d601f19601f8201168201806040525081019061160c9190612235565b6116285760405162461bcd60e51b815260040161086e9061243d565b61163183611892565b61167d5760405162461bcd60e51b815260206004820181905260248201527f506879676974616c413a20546f6b656e20646f6573206e6f7420657869737473604482015260640161086e565b60128260405161168d91906124e6565b9081526040519081900360200190205460ff161580156116b95750600083815260116020526040902054155b6117135760405162461bcd60e51b815260206004820152602560248201527f506879676974616c413a204e46432054616720697320616c72656164792073746044820152646f7265642160d81b606482015260840161086e565b604080516060810182524281526020808201858152600483850152600087815260119092529290208151815591519091906001820190611753908261237d565b50604082015160028201805460ff191660018360048111156117775761177761200c565b0217905550905050600160128360405161179191906124e6565b908152604051908190036020019020805491151560ff199092169190911790557f35fbbba3856c29d63b934b93a99ab192c3c6b71eacad55451212d003f94eeaad6117d93390565b8484426040516111559493929190612502565b6001600160a01b03918216600090815260096020908152604080832093909416825291909152205460ff1690565b6000600c54826107cd91906122f6565b60006301ffc9a760e01b6001600160e01b03198316148061185b57506380ac58cd60e01b6001600160e01b03198316145b806107cd5750506001600160e01b031916635b5e139f60e01b1490565b610aea828260405180602001604052806000815250611ca6565b6000816001116118db576002548210156118db5760005b50600082815260066020526040812054908190036118d1576118ca8361253a565b92506118a9565b600160e01b161590505b919050565b8060005260046000fd5b60006118f583610e65565b905081801561190d5750336001600160a01b03821614155b156119305761191c81336117ec565b611930576119306367d9dca160e11b6118e0565b60008381526008602052604080822080546001600160a01b0319166001600160a01b0388811691821790925591518693918516917f8c5be1e5ebec7d5bd14f71427d1e84f3dd0314c0f7b2291e5b200ac8c7c3b92591a450505050565b600081600111611a1e575060008181526006602052604081205490819003611a0b5760025482106119c8576119c8636f96cda160e11b6118e0565b5b506000190160008181526006602052604090205480156119c957600160e01b81166000036119f657919050565b611a06636f96cda160e11b6118e0565b6119c9565b600160e01b8116600003611a1e57919050565b6118db636f96cda160e11b6118e0565b6000611a398361198d565b905080600080611a5786600090815260086020526040902080549091565b915091508415611a8e57611a6c818433610b36565b611a8e57611a7a83336117ec565b611a8e57611a8e632ce44b5f60e11b6118e0565b8015611a9957600082555b6001600160a01b038316600081815260076020526040902080546fffffffffffffffffffffffffffffffff0190554260a01b17600360e01b17600087815260066020526040812091909155600160e11b85169003611b2757600186016000818152600660205260408120549003611b25576002548114611b255760008181526006602052604090208590555b505b60405186906000906001600160a01b038616907fddf252ad1be2c89b69c2b068fc378daa952ba7f163c4a11628f55a4df523b3ef908390a4505060038054600101905550505050565b604051630a85bd0160e11b81526000906001600160a01b0385169063150b7a0290611ba5903390899088908890600401612551565b6020604051808303816000875af1925050508015611be0575060408051601f3d908101601f19168201909252611bdd9181019061258e565b60015b611c35573d808015611c0e576040519150601f19603f3d011682016040523d82523d6000602084013e611c13565b606091505b508051600003611c2d57611c2d6368d2bf6b60e11b6118e0565b805181602001fd5b6001600160e01b031916630a85bd0160e11b1490505b949350505050565b6060600a8054610a20906122bc565b606060a06040510180604052602081039150506000815280825b600183039250600a81066030018353600a900480611c7c5750819003601f19909101908152919050565b611cb08383611d0f565b6001600160a01b0383163b15610d53576002548281035b611cda6000868380600101945086611b70565b611cee57611cee6368d2bf6b60e11b6118e0565b818110611cc7578160025414611d0857611d0860006118e0565b5050505050565b6002546000829003611d2b57611d2b63b562e8dd60e01b6118e0565b60008181526006602090815260408083206001600160a01b0387164260a01b6001881460e11b17811790915580845260079092528220805468010000000000000001860201905590819003611d8957611d89622e076360e81b6118e0565b818301825b808360007fddf252ad1be2c89b69c2b068fc378daa952ba7f163c4a11628f55a4df523b3ef600080a4818160010191508103611d8e575060025550505050565b80356001600160a01b03811681146118db57600080fd5b600060208284031215611df757600080fd5b61152182611dce565b6001600160e01b031981168114610d3557600080fd5b600060208284031215611e2857600080fd5b813561152181611e00565b60008060408385031215611e4657600080fd5b611e4f83611dce565b946020939093013593505050565b60005b83811015611e78578181015183820152602001611e60565b50506000910152565b60008151808452611e99816020860160208601611e5d565b601f01601f19169290920160200192915050565b6020815260006115216020830184611e81565b600060208284031215611ed257600080fd5b5035919050565b600080600060608486031215611eee57600080fd5b611ef784611dce565b9250611f0560208501611dce565b9150604084013590509250925092565b60008060408385031215611f2857600080fd5b50508035926020909101359150565b634e487b7160e01b600052604160045260246000fd5b600067ffffffffffffffff80841115611f6857611f68611f37565b604051601f8501601f19908116603f01168101908282118183101715611f9057611f90611f37565b81604052809350858152868686011115611fa957600080fd5b858560208301376000602087830101525050509392505050565b600060208284031215611fd557600080fd5b813567ffffffffffffffff811115611fec57600080fd5b8201601f81018413611ffd57600080fd5b611c4b84823560208401611f4d565b634e487b7160e01b600052602160045260246000fd5b6005811061204057634e487b7160e01b600052602160045260246000fd5b9052565b83815260606020820152600061205d6060830185611e81565b9050611c4b6040830184612022565b600082601f83011261207d57600080fd5b61152183833560208501611f4d565b60006020828403121561209e57600080fd5b813567ffffffffffffffff8111156120b557600080fd5b611c4b8482850161206c565b600080604083850312156120d457600080fd5b823591506020830135600581106120ea57600080fd5b809150509250929050565b8015158114610d3557600080fd5b6000806040838503121561211657600080fd5b61211f83611dce565b915060208301356120ea816120f5565b6000806000806080858703121561214557600080fd5b61214e85611dce565b935061215c60208601611dce565b925060408501359150606085013567ffffffffffffffff81111561217f57600080fd5b61218b8782880161206c565b91505092959194509250565b6000602082840312156121a957600080fd5b813561ffff8116811461152157600080fd5b600080604083850312156121ce57600080fd5b82359150602083013567ffffffffffffffff8111156121ec57600080fd5b6121f88582860161206c565b9150509250929050565b6000806040838503121561221557600080fd5b61221e83611dce565b915061222c60208401611dce565b90509250929050565b60006020828403121561224757600080fd5b8151611521816120f5565b60208082526021908201527f506879676974616c413a2055736572206973206e6f7420617574686f72697a656040820152601960fa1b606082015260800190565b634e487b7160e01b600052601160045260246000fd5b808201808211156107cd576107cd612293565b600181811c908216806122d057607f821691505b6020821081036122f057634e487b7160e01b600052602260045260246000fd5b50919050565b80820281158282048414176107cd576107cd612293565b60008261232a57634e487b7160e01b600052601260045260246000fd5b500490565b601f821115610d5357600081815260208120601f850160051c810160208610156123565750805b601f850160051c820191505b8181101561237557828155600101612362565b505050505050565b815167ffffffffffffffff81111561239757612397611f37565b6123ab816123a584546122bc565b8461232f565b602080601f8311600181146123e057600084156123c85750858301515b600019600386901b1c1916600185901b178555612375565b600085815260208120601f198616915b8281101561240f578886015182559484019460019091019084016123f0565b508582101561242d5787850151600019600388901b60f8161c191681555b5050505050600190811b01905550565b60208082526027908201527f506879676974616c413a55736572206973206e6f74206f776e6572206f72206f6040820152663832b930ba37b960c91b606082015260800190565b6001600160a01b038516815260208101849052608081016124a86040830185612022565b82606083015295945050505050565b600083516124c9818460208801611e5d565b8351908301906124dd818360208801611e5d565b01949350505050565b600082516124f8818460208701611e5d565b9190910192915050565b60018060a01b03851681528360208201526080604082015260006125296080830185611e81565b905082606083015295945050505050565b60008161254957612549612293565b506000190190565b6001600160a01b038581168252841660208201526040810183905260806060820181905260009061258490830184611e81565b9695505050505050565b6000602082840312156125a057600080fd5b815161152181611e0056fea264697066735822122084160ea67a4d818458dbae0f71efd70c8b0cd346d69e14a9bf070be55e99ed2e64736f6c63430008140033",
  "linkReferences": {},
  "deployedLinkReferences": {}
}