{
  "_format": "hh-sol-artifact-1",
  "contractName": "Nero",
  "sourceName": "contracts/Nero.sol",
  "abi": [
    {
      "inputs": [
        {
          "internalType": "string",
          "name": "name",
          "type": "string"
        },
        {
          "internalType": "string",
          "name": "symbol",
          "type": "string"
        },
        {
          "internalType": "uint256",
          "name": "supply",
          "type": "uint256"
        },
        {
          "internalType": "uint256",
          "name": "price",
          "type": "uint256"
        },
        {
          "internalType": "address",
          "name": "nero",
          "type": "address"
        },
        {
          "internalType": "uint256",
          "name": "bronzeLevel",
          "type": "uint256"
        },
        {
          "internalType": "uint256",
          "name": "silverLevel",
          "type": "uint256"
        },
        {
          "internalType": "uint256",
          "name": "goldLevel",
          "type": "uint256"
        }
      ],
      "stateMutability": "nonpayable",
      "type": "constructor"
    },
    {
      "inputs": [],
      "name": "AccessControlBadConfirmation",
      "type": "error"
    },
    {
      "inputs": [
        {
          "internalType": "address",
          "name": "account",
          "type": "address"
        },
        {
          "internalType": "bytes32",
          "name": "neededRole",
          "type": "bytes32"
        }
      ],
      "name": "AccessControlUnauthorizedAccount",
      "type": "error"
    },
    {
      "inputs": [],
      "name": "ApprovalCallerNotOwnerNorApproved",
      "type": "error"
    },
    {
      "inputs": [],
      "name": "ApprovalQueryForNonexistentToken",
      "type": "error"
    },
    {
      "inputs": [],
      "name": "BalanceQueryForZeroAddress",
      "type": "error"
    },
    {
      "inputs": [],
      "name": "MintERC2309QuantityExceedsLimit",
      "type": "error"
    },
    {
      "inputs": [],
      "name": "MintToZeroAddress",
      "type": "error"
    },
    {
      "inputs": [],
      "name": "MintZeroQuantity",
      "type": "error"
    },
    {
      "inputs": [],
      "name": "NotCompatibleWithSpotMints",
      "type": "error"
    },
    {
      "inputs": [
        {
          "internalType": "address",
          "name": "owner",
          "type": "address"
        }
      ],
      "name": "OwnableInvalidOwner",
      "type": "error"
    },
    {
      "inputs": [
        {
          "internalType": "address",
          "name": "account",
          "type": "address"
        }
      ],
      "name": "OwnableUnauthorizedAccount",
      "type": "error"
    },
    {
      "inputs": [],
      "name": "OwnerQueryForNonexistentToken",
      "type": "error"
    },
    {
      "inputs": [],
      "name": "OwnershipNotInitializedForExtraData",
      "type": "error"
    },
    {
      "inputs": [],
      "name": "SequentialMintExceedsLimit",
      "type": "error"
    },
    {
      "inputs": [],
      "name": "SequentialUpToTooSmall",
      "type": "error"
    },
    {
      "inputs": [],
      "name": "SpotMintTokenIdTooSmall",
      "type": "error"
    },
    {
      "inputs": [],
      "name": "TokenAlreadyExists",
      "type": "error"
    },
    {
      "inputs": [],
      "name": "TransferCallerNotOwnerNorApproved",
      "type": "error"
    },
    {
      "inputs": [],
      "name": "TransferFromIncorrectOwner",
      "type": "error"
    },
    {
      "inputs": [],
      "name": "TransferToNonERC721ReceiverImplementer",
      "type": "error"
    },
    {
      "inputs": [],
      "name": "TransferToZeroAddress",
      "type": "error"
    },
    {
      "inputs": [],
      "name": "URIQueryForNonexistentToken",
      "type": "error"
    },
    {
      "anonymous": false,
      "inputs": [
        {
          "indexed": true,
          "internalType": "address",
          "name": "owner",
          "type": "address"
        },
        {
          "indexed": true,
          "internalType": "address",
          "name": "approved",
          "type": "address"
        },
        {
          "indexed": true,
          "internalType": "uint256",
          "name": "tokenId",
          "type": "uint256"
        }
      ],
      "name": "Approval",
      "type": "event"
    },
    {
      "anonymous": false,
      "inputs": [
        {
          "indexed": true,
          "internalType": "address",
          "name": "owner",
          "type": "address"
        },
        {
          "indexed": true,
          "internalType": "address",
          "name": "operator",
          "type": "address"
        },
        {
          "indexed": false,
          "internalType": "bool",
          "name": "approved",
          "type": "bool"
        }
      ],
      "name": "ApprovalForAll",
      "type": "event"
    },
    {
      "anonymous": false,
      "inputs": [
        {
          "indexed": true,
          "internalType": "uint256",
          "name": "fromTokenId",
          "type": "uint256"
        },
        {
          "indexed": false,
          "internalType": "uint256",
          "name": "toTokenId",
          "type": "uint256"
        },
        {
          "indexed": true,
          "internalType": "address",
          "name": "from",
          "type": "address"
        },
        {
          "indexed": true,
          "internalType": "address",
          "name": "to",
          "type": "address"
        }
      ],
      "name": "ConsecutiveTransfer",
      "type": "event"
    },
    {
      "anonymous": false,
      "inputs": [
        {
          "indexed": true,
          "internalType": "address",
          "name": "previousOwner",
          "type": "address"
        },
        {
          "indexed": true,
          "internalType": "address",
          "name": "newOwner",
          "type": "address"
        }
      ],
      "name": "OwnershipTransferred",
      "type": "event"
    },
    {
      "anonymous": false,
      "inputs": [
        {
          "indexed": true,
          "internalType": "bytes32",
          "name": "role",
          "type": "bytes32"
        },
        {
          "indexed": true,
          "internalType": "bytes32",
          "name": "previousAdminRole",
          "type": "bytes32"
        },
        {
          "indexed": true,
          "internalType": "bytes32",
          "name": "newAdminRole",
          "type": "bytes32"
        }
      ],
      "name": "RoleAdminChanged",
      "type": "event"
    },
    {
      "anonymous": false,
      "inputs": [
        {
          "indexed": true,
          "internalType": "bytes32",
          "name": "role",
          "type": "bytes32"
        },
        {
          "indexed": true,
          "internalType": "address",
          "name": "account",
          "type": "address"
        },
        {
          "indexed": true,
          "internalType": "address",
          "name": "sender",
          "type": "address"
        }
      ],
      "name": "RoleGranted",
      "type": "event"
    },
    {
      "anonymous": false,
      "inputs": [
        {
          "indexed": true,
          "internalType": "bytes32",
          "name": "role",
          "type": "bytes32"
        },
        {
          "indexed": true,
          "internalType": "address",
          "name": "account",
          "type": "address"
        },
        {
          "indexed": true,
          "internalType": "address",
          "name": "sender",
          "type": "address"
        }
      ],
      "name": "RoleRevoked",
      "type": "event"
    },
    {
      "anonymous": false,
      "inputs": [
        {
          "indexed": true,
          "internalType": "address",
          "name": "from",
          "type": "address"
        },
        {
          "indexed": true,
          "internalType": "address",
          "name": "to",
          "type": "address"
        },
        {
          "indexed": true,
          "internalType": "uint256",
          "name": "tokenId",
          "type": "uint256"
        }
      ],
      "name": "Transfer",
      "type": "event"
    },
    {
      "inputs": [],
      "name": "DEFAULT_ADMIN_ROLE",
      "outputs": [
        {
          "internalType": "bytes32",
          "name": "",
          "type": "bytes32"
        }
      ],
      "stateMutability": "view",
      "type": "function"
    },
    {
      "inputs": [],
      "name": "MINTER_ROLE",
      "outputs": [
        {
          "internalType": "bytes32",
          "name": "",
          "type": "bytes32"
        }
      ],
      "stateMutability": "view",
      "type": "function"
    },
    {
      "inputs": [
        {
          "internalType": "address",
          "name": "to",
          "type": "address"
        },
        {
          "internalType": "uint256",
          "name": "tokenId",
          "type": "uint256"
        }
      ],
      "name": "approve",
      "outputs": [],
      "stateMutability": "payable",
      "type": "function"
    },
    {
      "inputs": [
        {
          "internalType": "address",
          "name": "owner",
          "type": "address"
        }
      ],
      "name": "balanceOf",
      "outputs": [
        {
          "internalType": "uint256",
          "name": "",
          "type": "uint256"
        }
      ],
      "stateMutability": "view",
      "type": "function"
    },
    {
      "inputs": [],
      "name": "bronzeTierUnlock",
      "outputs": [
        {
          "internalType": "uint256",
          "name": "",
          "type": "uint256"
        }
      ],
      "stateMutability": "view",
      "type": "function"
    },
    {
      "inputs": [
        {
          "internalType": "uint256",
          "name": "tokenId",
          "type": "uint256"
        }
      ],
      "name": "getApproved",
      "outputs": [
        {
          "internalType": "address",
          "name": "",
          "type": "address"
        }
      ],
      "stateMutability": "view",
      "type": "function"
    },
    {
      "inputs": [
        {
          "internalType": "uint256",
          "name": "tokenId",
          "type": "uint256"
        }
      ],
      "name": "getDanceMove",
      "outputs": [
        {
          "internalType": "uint256",
          "name": "",
          "type": "uint256"
        }
      ],
      "stateMutability": "view",
      "type": "function"
    },
    {
      "inputs": [
        {
          "internalType": "bytes32",
          "name": "role",
          "type": "bytes32"
        }
      ],
      "name": "getRoleAdmin",
      "outputs": [
        {
          "internalType": "bytes32",
          "name": "",
          "type": "bytes32"
        }
      ],
      "stateMutability": "view",
      "type": "function"
    },
    {
      "inputs": [],
      "name": "goldTierUnlock",
      "outputs": [
        {
          "internalType": "uint256",
          "name": "",
          "type": "uint256"
        }
      ],
      "stateMutability": "view",
      "type": "function"
    },
    {
      "inputs": [
        {
          "internalType": "bytes32",
          "name": "role",
          "type": "bytes32"
        },
        {
          "internalType": "address",
          "name": "account",
          "type": "address"
        }
      ],
      "name": "grantRole",
      "outputs": [],
      "stateMutability": "nonpayable",
      "type": "function"
    },
    {
      "inputs": [
        {
          "internalType": "bytes32",
          "name": "role",
          "type": "bytes32"
        },
        {
          "internalType": "address",
          "name": "account",
          "type": "address"
        }
      ],
      "name": "hasRole",
      "outputs": [
        {
          "internalType": "bool",
          "name": "",
          "type": "bool"
        }
      ],
      "stateMutability": "view",
      "type": "function"
    },
    {
      "inputs": [
        {
          "internalType": "address",
          "name": "owner",
          "type": "address"
        },
        {
          "internalType": "address",
          "name": "operator",
          "type": "address"
        }
      ],
      "name": "isApprovedForAll",
      "outputs": [
        {
          "internalType": "bool",
          "name": "",
          "type": "bool"
        }
      ],
      "stateMutability": "view",
      "type": "function"
    },
    {
      "inputs": [],
      "name": "lock",
      "outputs": [],
      "stateMutability": "nonpayable",
      "type": "function"
    },
    {
      "inputs": [],
      "name": "locked",
      "outputs": [
        {
          "internalType": "bool",
          "name": "",
          "type": "bool"
        }
      ],
      "stateMutability": "view",
      "type": "function"
    },
    {
      "inputs": [],
      "name": "lockedBackgroundURI",
      "outputs": [
        {
          "internalType": "string",
          "name": "",
          "type": "string"
        }
      ],
      "stateMutability": "view",
      "type": "function"
    },
    {
      "inputs": [],
      "name": "lockedGlbURI",
      "outputs": [
        {
          "internalType": "string",
          "name": "",
          "type": "string"
        }
      ],
      "stateMutability": "view",
      "type": "function"
    },
    {
      "inputs": [],
      "name": "maxSupply",
      "outputs": [
        {
          "internalType": "uint256",
          "name": "",
          "type": "uint256"
        }
      ],
      "stateMutability": "view",
      "type": "function"
    },
    {
      "inputs": [],
      "name": "metadataURI",
      "outputs": [
        {
          "internalType": "string",
          "name": "",
          "type": "string"
        }
      ],
      "stateMutability": "view",
      "type": "function"
    },
    {
      "inputs": [
        {
          "internalType": "uint256",
          "name": "quantity",
          "type": "uint256"
        }
      ],
      "name": "mint",
      "outputs": [],
      "stateMutability": "payable",
      "type": "function"
    },
    {
      "inputs": [],
      "name": "name",
      "outputs": [
        {
          "internalType": "string",
          "name": "",
          "type": "string"
        }
      ],
      "stateMutability": "view",
      "type": "function"
    },
    {
      "inputs": [],
      "name": "owner",
      "outputs": [
        {
          "internalType": "address",
          "name": "",
          "type": "address"
        }
      ],
      "stateMutability": "view",
      "type": "function"
    },
    {
      "inputs": [
        {
          "internalType": "uint256",
          "name": "tokenId",
          "type": "uint256"
        }
      ],
      "name": "ownerOf",
      "outputs": [
        {
          "internalType": "address",
          "name": "",
          "type": "address"
        }
      ],
      "stateMutability": "view",
      "type": "function"
    },
    {
      "inputs": [],
      "name": "pricePerTokenMint",
      "outputs": [
        {
          "internalType": "uint256",
          "name": "",
          "type": "uint256"
        }
      ],
      "stateMutability": "view",
      "type": "function"
    },
    {
      "inputs": [],
      "name": "privateKnowledgeLink",
      "outputs": [
        {
          "internalType": "string",
          "name": "",
          "type": "string"
        }
      ],
      "stateMutability": "view",
      "type": "function"
    },
    {
      "inputs": [],
      "name": "publicKnowledgeLink",
      "outputs": [
        {
          "internalType": "string",
          "name": "",
          "type": "string"
        }
      ],
      "stateMutability": "view",
      "type": "function"
    },
    {
      "inputs": [],
      "name": "renounceOwnership",
      "outputs": [],
      "stateMutability": "nonpayable",
      "type": "function"
    },
    {
      "inputs": [
        {
          "internalType": "bytes32",
          "name": "role",
          "type": "bytes32"
        },
        {
          "internalType": "address",
          "name": "callerConfirmation",
          "type": "address"
        }
      ],
      "name": "renounceRole",
      "outputs": [],
      "stateMutability": "nonpayable",
      "type": "function"
    },
    {
      "inputs": [
        {
          "internalType": "bytes32",
          "name": "role",
          "type": "bytes32"
        },
        {
          "internalType": "address",
          "name": "account",
          "type": "address"
        }
      ],
      "name": "revokeRole",
      "outputs": [],
      "stateMutability": "nonpayable",
      "type": "function"
    },
    {
      "inputs": [
        {
          "internalType": "address",
          "name": "from",
          "type": "address"
        },
        {
          "internalType": "address",
          "name": "to",
          "type": "address"
        },
        {
          "internalType": "uint256",
          "name": "tokenId",
          "type": "uint256"
        }
      ],
      "name": "safeTransferFrom",
      "outputs": [],
      "stateMutability": "payable",
      "type": "function"
    },
    {
      "inputs": [
        {
          "internalType": "address",
          "name": "from",
          "type": "address"
        },
        {
          "internalType": "address",
          "name": "to",
          "type": "address"
        },
        {
          "internalType": "uint256",
          "name": "tokenId",
          "type": "uint256"
        },
        {
          "internalType": "bytes",
          "name": "_data",
          "type": "bytes"
        }
      ],
      "name": "safeTransferFrom",
      "outputs": [],
      "stateMutability": "payable",
      "type": "function"
    },
    {
      "inputs": [
        {
          "internalType": "uint256",
          "name": "",
          "type": "uint256"
        }
      ],
      "name": "scoreboard",
      "outputs": [
        {
          "internalType": "uint256",
          "name": "",
          "type": "uint256"
        }
      ],
      "stateMutability": "view",
      "type": "function"
    },
    {
      "inputs": [
        {
          "internalType": "address",
          "name": "operator",
          "type": "address"
        },
        {
          "internalType": "bool",
          "name": "approved",
          "type": "bool"
        }
      ],
      "name": "setApprovalForAll",
      "outputs": [],
      "stateMutability": "nonpayable",
      "type": "function"
    },
    {
      "inputs": [],
      "name": "silverTierUnlock",
      "outputs": [
        {
          "internalType": "uint256",
          "name": "",
          "type": "uint256"
        }
      ],
      "stateMutability": "view",
      "type": "function"
    },
    {
      "inputs": [
        {
          "internalType": "bytes4",
          "name": "interfaceId",
          "type": "bytes4"
        }
      ],
      "name": "supportsInterface",
      "outputs": [
        {
          "internalType": "bool",
          "name": "",
          "type": "bool"
        }
      ],
      "stateMutability": "view",
      "type": "function"
    },
    {
      "inputs": [],
      "name": "symbol",
      "outputs": [
        {
          "internalType": "string",
          "name": "",
          "type": "string"
        }
      ],
      "stateMutability": "view",
      "type": "function"
    },
    {
      "inputs": [
        {
          "internalType": "uint256",
          "name": "tokenId",
          "type": "uint256"
        }
      ],
      "name": "tokenURI",
      "outputs": [
        {
          "internalType": "string",
          "name": "",
          "type": "string"
        }
      ],
      "stateMutability": "view",
      "type": "function"
    },
    {
      "inputs": [],
      "name": "tokenURILink",
      "outputs": [
        {
          "internalType": "string",
          "name": "",
          "type": "string"
        }
      ],
      "stateMutability": "view",
      "type": "function"
    },
    {
      "inputs": [],
      "name": "totalSupply",
      "outputs": [
        {
          "internalType": "uint256",
          "name": "result",
          "type": "uint256"
        }
      ],
      "stateMutability": "view",
      "type": "function"
    },
    {
      "inputs": [
        {
          "internalType": "address",
          "name": "from",
          "type": "address"
        },
        {
          "internalType": "address",
          "name": "to",
          "type": "address"
        },
        {
          "internalType": "uint256",
          "name": "tokenId",
          "type": "uint256"
        }
      ],
      "name": "transferFrom",
      "outputs": [],
      "stateMutability": "payable",
      "type": "function"
    },
    {
      "inputs": [
        {
          "internalType": "address",
          "name": "newOwner",
          "type": "address"
        }
      ],
      "name": "transferOwnership",
      "outputs": [],
      "stateMutability": "nonpayable",
      "type": "function"
    },
    {
      "inputs": [],
      "name": "unlockedBackgroundURI",
      "outputs": [
        {
          "internalType": "string",
          "name": "",
          "type": "string"
        }
      ],
      "stateMutability": "view",
      "type": "function"
    },
    {
      "inputs": [],
      "name": "unlockedGlbURI",
      "outputs": [
        {
          "internalType": "string",
          "name": "",
          "type": "string"
        }
      ],
      "stateMutability": "view",
      "type": "function"
    },
    {
      "inputs": [
        {
          "internalType": "string",
          "name": "_lockedBackgroundURI",
          "type": "string"
        }
      ],
      "name": "updateLockedBackground",
      "outputs": [],
      "stateMutability": "nonpayable",
      "type": "function"
    },
    {
      "inputs": [
        {
          "internalType": "string",
          "name": "_lockedGlbURI",
          "type": "string"
        }
      ],
      "name": "updateLockedGlb",
      "outputs": [],
      "stateMutability": "nonpayable",
      "type": "function"
    },
    {
      "inputs": [
        {
          "internalType": "string",
          "name": "_unlockedGlbURI",
          "type": "string"
        },
        {
          "internalType": "string",
          "name": "_unlockedBackgroundURI",
          "type": "string"
        },
        {
          "internalType": "string",
          "name": "_lockedGlbURI",
          "type": "string"
        },
        {
          "internalType": "string",
          "name": "_lockedBackgroundURI",
          "type": "string"
        },
        {
          "internalType": "string",
          "name": "_publicKnowlegeURI",
          "type": "string"
        },
        {
          "internalType": "string",
          "name": "_privateKnowledgeURI",
          "type": "string"
        },
        {
          "internalType": "string",
          "name": "_metadataURI",
          "type": "string"
        }
      ],
      "name": "updateMetadata",
      "outputs": [],
      "stateMutability": "nonpayable",
      "type": "function"
    },
    {
      "inputs": [
        {
          "internalType": "uint256",
          "name": "nftId",
          "type": "uint256"
        },
        {
          "internalType": "uint256",
          "name": "total",
          "type": "uint256"
        }
      ],
      "name": "updateScoreboard",
      "outputs": [],
      "stateMutability": "nonpayable",
      "type": "function"
    },
    {
      "inputs": [
        {
          "internalType": "string",
          "name": "_unlockedBackgroundURI",
          "type": "string"
        }
      ],
      "name": "updateUnlockedBackground",
      "outputs": [],
      "stateMutability": "nonpayable",
      "type": "function"
    },
    {
      "inputs": [
        {
          "internalType": "string",
          "name": "_unlockedGlbURI",
          "type": "string"
        }
      ],
      "name": "updateUnlockedGlb",
      "outputs": [],
      "stateMutability": "nonpayable",
      "type": "function"
    }
  ],
  "bytecode": "0x60806040526000600c60006101000a81548160ff021916908315150217905550600a601755606460185560c86019553480156200003b57600080fd5b5060405162004951380380620049518339818101604052810190620000619190620006d0565b338888816002908162000075919062000a18565b50806003908162000087919062000a18565b50620000986200022960201b60201c565b600081905550620000ae6200022960201b60201c565b620000be6200022e60201b60201c565b1015620000de57620000dd63fed8210f60e01b6200025660201b60201c565b5b5050600073ffffffffffffffffffffffffffffffffffffffff168173ffffffffffffffffffffffffffffffffffffffff1603620001555760006040517f1e4fbdf70000000000000000000000000000000000000000000000000000000081526004016200014c919062000b10565b60405180910390fd5b62000166816200026060201b60201c565b5085600d81905550620001a07ff99f54ba88613d946bdc79767a2d779e0d744d1b5b02b85576a5b76d8e372355856200032660201b60201c565b5084601681905550600083118015620001b857508282115b8015620001c457508181115b62000206576040517f08c379a0000000000000000000000000000000000000000000000000000000008152600401620001fd9062000b8e565b60405180910390fd5b826017819055508160188190555080601981905550505050505050505062000bb0565b600090565b60007fffffffffffffffffffffffffffffffffffffffffffffffffffffffffffffffff905090565b8060005260046000fd5b6000600960009054906101000a900473ffffffffffffffffffffffffffffffffffffffff16905081600960006101000a81548173ffffffffffffffffffffffffffffffffffffffff021916908373ffffffffffffffffffffffffffffffffffffffff1602179055508173ffffffffffffffffffffffffffffffffffffffff168173ffffffffffffffffffffffffffffffffffffffff167f8be0079c531659141344cd1fd0a4f28419497f9722a3daafe3b4186f6b6457e060405160405180910390a35050565b60006200033a83836200042a60201b60201c565b6200041f576001600a600085815260200190815260200160002060000160008473ffffffffffffffffffffffffffffffffffffffff1673ffffffffffffffffffffffffffffffffffffffff16815260200190815260200160002060006101000a81548160ff021916908315150217905550620003bb6200049560201b60201c565b73ffffffffffffffffffffffffffffffffffffffff168273ffffffffffffffffffffffffffffffffffffffff16847f2f8788117e7eff1d82e926ec794901d17c78024a50270940304540a733656f0d60405160405180910390a46001905062000424565b600090505b92915050565b6000600a600084815260200190815260200160002060000160008373ffffffffffffffffffffffffffffffffffffffff1673ffffffffffffffffffffffffffffffffffffffff16815260200190815260200160002060009054906101000a900460ff16905092915050565b600033905090565b6000604051905090565b600080fd5b600080fd5b600080fd5b600080fd5b6000601f19601f8301169050919050565b7f4e487b7100000000000000000000000000000000000000000000000000000000600052604160045260246000fd5b6200050682620004bb565b810181811067ffffffffffffffff82111715620005285762000527620004cc565b5b80604052505050565b60006200053d6200049d565b90506200054b8282620004fb565b919050565b600067ffffffffffffffff8211156200056e576200056d620004cc565b5b6200057982620004bb565b9050602081019050919050565b60005b83811015620005a657808201518184015260208101905062000589565b60008484015250505050565b6000620005c9620005c38462000550565b62000531565b905082815260208101848484011115620005e857620005e7620004b6565b5b620005f584828562000586565b509392505050565b600082601f830112620006155762000614620004b1565b5b815162000627848260208601620005b2565b91505092915050565b6000819050919050565b620006458162000630565b81146200065157600080fd5b50565b60008151905062000665816200063a565b92915050565b600073ffffffffffffffffffffffffffffffffffffffff82169050919050565b600062000698826200066b565b9050919050565b620006aa816200068b565b8114620006b657600080fd5b50565b600081519050620006ca816200069f565b92915050565b600080600080600080600080610100898b031215620006f457620006f3620004a7565b5b600089015167ffffffffffffffff811115620007155762000714620004ac565b5b620007238b828c01620005fd565b985050602089015167ffffffffffffffff811115620007475762000746620004ac565b5b620007558b828c01620005fd565b9750506040620007688b828c0162000654565b96505060606200077b8b828c0162000654565b95505060806200078e8b828c01620006b9565b94505060a0620007a18b828c0162000654565b93505060c0620007b48b828c0162000654565b92505060e0620007c78b828c0162000654565b9150509295985092959890939650565b600081519050919050565b7f4e487b7100000000000000000000000000000000000000000000000000000000600052602260045260246000fd5b600060028204905060018216806200082a57607f821691505b60208210810362000840576200083f620007e2565b5b50919050565b60008190508160005260206000209050919050565b60006020601f8301049050919050565b600082821b905092915050565b600060088302620008aa7fffffffffffffffffffffffffffffffffffffffffffffffffffffffffffffffff826200086b565b620008b686836200086b565b95508019841693508086168417925050509392505050565b6000819050919050565b6000620008f9620008f3620008ed8462000630565b620008ce565b62000630565b9050919050565b6000819050919050565b6200091583620008d8565b6200092d620009248262000900565b84845462000878565b825550505050565b600090565b6200094462000935565b620009518184846200090a565b505050565b5b8181101562000979576200096d6000826200093a565b60018101905062000957565b5050565b601f821115620009c857620009928162000846565b6200099d846200085b565b81016020851015620009ad578190505b620009c5620009bc856200085b565b83018262000956565b50505b505050565b600082821c905092915050565b6000620009ed60001984600802620009cd565b1980831691505092915050565b600062000a088383620009da565b9150826002028217905092915050565b62000a2382620007d7565b67ffffffffffffffff81111562000a3f5762000a3e620004cc565b5b62000a4b825462000811565b62000a588282856200097d565b600060209050601f83116001811462000a90576000841562000a7b578287015190505b62000a878582620009fa565b86555062000af7565b601f19841662000aa08662000846565b60005b8281101562000aca5784890151825560018201915060208501945060208101905062000aa3565b8683101562000aea578489015162000ae6601f891682620009da565b8355505b6001600288020188555050505b505050505050565b62000b0a816200068b565b82525050565b600060208201905062000b27600083018462000aff565b92915050565b600082825260208201905092915050565b7f696e76616c6964206c6576656c20636f6e66696775726174696f6e0000000000600082015250565b600062000b76601b8362000b2d565b915062000b838262000b3e565b602082019050919050565b6000602082019050818103600083015262000ba98162000b67565b9050919050565b613d918062000bc06000396000f3fe6080604052600436106102935760003560e01c80638d9480aa1161015a578063c87b56dd116100c1578063d75ffdcf1161007a578063d75ffdcf146109c3578063e985e9c514610a00578063f2ba4fe314610a3d578063f2fde38b14610a68578063f83d08ba14610a91578063fcccc0b614610aa857610293565b8063c87b56dd146108b3578063cf309012146108f0578063d186f26f1461091b578063d539139314610944578063d547741f1461096f578063d5abeb011461099857610293565b8063a0e301ea11610113578063a0e301ea146107c2578063a217fddf146107ed578063a22cb46514610818578063a8ab7e5714610841578063add4c1d91461086c578063b88d4fde1461089757610293565b80638d9480aa146106c15780638da5cb5b146106ea5780638e63aa0c1461071557806391d148541461073e57806395d89b411461077b578063a0712d68146107a657610293565b806334b72f22116101fe5780634ecfcebb116101b75780634ecfcebb146105b15780636352211e146105da57806370a0823114610617578063715018a6146106545780637dfce4ba1461066b5780638c17bb9f1461069657610293565b806334b72f22146104b057806335213f4f146104db57806336568abe146105045780633d2a9b861461052d57806342842e0e14610558578063484413651461057457610293565b806318160ddd1161025057806318160ddd146103af5780631971f69b146103da57806323b872dd14610403578063248a9ca31461041f578063286c1d301461045c5780632f2ff15d1461048757610293565b806301ffc9a71461029857806303ee438c146102d557806306fdde0314610300578063081812fc1461032b578063095ea7b31461036857806312b0e45514610384575b600080fd5b3480156102a457600080fd5b506102bf60048036038101906102ba9190612ba7565b610ad3565b6040516102cc9190612bef565b60405180910390f35b3480156102e157600080fd5b506102ea610ae5565b6040516102f79190612c9a565b60405180910390f35b34801561030c57600080fd5b50610315610b73565b6040516103229190612c9a565b60405180910390f35b34801561033757600080fd5b50610352600480360381019061034d9190612cf2565b610c05565b60405161035f9190612d60565b60405180910390f35b610382600480360381019061037d9190612da7565b610c63565b005b34801561039057600080fd5b50610399610c73565b6040516103a69190612c9a565b60405180910390f35b3480156103bb57600080fd5b506103c4610d01565b6040516103d19190612df6565b60405180910390f35b3480156103e657600080fd5b5061040160048036038101906103fc9190612f46565b610d4e565b005b61041d60048036038101906104189190612f8f565b610db9565b005b34801561042b57600080fd5b5061044660048036038101906104419190613018565b61107a565b6040516104539190613054565b60405180910390f35b34801561046857600080fd5b5061047161109a565b60405161047e9190612c9a565b60405180910390f35b34801561049357600080fd5b506104ae60048036038101906104a9919061306f565b611128565b005b3480156104bc57600080fd5b506104c561114a565b6040516104d29190612c9a565b60405180910390f35b3480156104e757600080fd5b5061050260048036038101906104fd9190612f46565b6111d8565b005b34801561051057600080fd5b5061052b6004803603810190610526919061306f565b611243565b005b34801561053957600080fd5b506105426112be565b60405161054f9190612c9a565b60405180910390f35b610572600480360381019061056d9190612f8f565b61134c565b005b34801561058057600080fd5b5061059b60048036038101906105969190612cf2565b61136c565b6040516105a89190612df6565b60405180910390f35b3480156105bd57600080fd5b506105d860048036038101906105d391906130af565b611432565b005b3480156105e657600080fd5b5061060160048036038101906105fc9190612cf2565b611516565b60405161060e9190612d60565b60405180910390f35b34801561062357600080fd5b5061063e600480360381019061063991906130ef565b611528565b60405161064b9190612df6565b60405180910390f35b34801561066057600080fd5b506106696115bf565b005b34801561067757600080fd5b506106806115d3565b60405161068d9190612df6565b60405180910390f35b3480156106a257600080fd5b506106ab6115d9565b6040516106b89190612c9a565b60405180910390f35b3480156106cd57600080fd5b506106e860048036038101906106e39190612f46565b611667565b005b3480156106f657600080fd5b506106ff6116d2565b60405161070c9190612d60565b60405180910390f35b34801561072157600080fd5b5061073c60048036038101906107379190612f46565b6116fc565b005b34801561074a57600080fd5b506107656004803603810190610760919061306f565b611767565b6040516107729190612bef565b60405180910390f35b34801561078757600080fd5b506107906117d2565b60405161079d9190612c9a565b60405180910390f35b6107c060048036038101906107bb9190612cf2565b611864565b005b3480156107ce57600080fd5b506107d761197e565b6040516107e49190612df6565b60405180910390f35b3480156107f957600080fd5b50610802611984565b60405161080f9190613054565b60405180910390f35b34801561082457600080fd5b5061083f600480360381019061083a9190613148565b61198b565b005b34801561084d57600080fd5b50610856611a96565b6040516108639190612df6565b60405180910390f35b34801561087857600080fd5b50610881611a9c565b60405161088e9190612c9a565b60405180910390f35b6108b160048036038101906108ac9190613229565b611b2a565b005b3480156108bf57600080fd5b506108da60048036038101906108d59190612cf2565b611b7c565b6040516108e79190612c9a565b60405180910390f35b3480156108fc57600080fd5b50610905611bf0565b6040516109129190612bef565b60405180910390f35b34801561092757600080fd5b50610942600480360381019061093d91906132ac565b611c03565b005b34801561095057600080fd5b50610959611cdc565b6040516109669190613054565b60405180910390f35b34801561097b57600080fd5b506109966004803603810190610991919061306f565b611d00565b005b3480156109a457600080fd5b506109ad611d22565b6040516109ba9190612df6565b60405180910390f35b3480156109cf57600080fd5b506109ea60048036038101906109e59190612cf2565b611d28565b6040516109f79190612df6565b60405180910390f35b348015610a0c57600080fd5b50610a276004803603810190610a229190613412565b611d40565b604051610a349190612bef565b60405180910390f35b348015610a4957600080fd5b50610a52611dd4565b604051610a5f9190612df6565b60405180910390f35b348015610a7457600080fd5b50610a8f6004803603810190610a8a91906130ef565b611dda565b005b348015610a9d57600080fd5b50610aa6611e60565b005b348015610ab457600080fd5b50610abd611ed5565b604051610aca9190612c9a565b60405180910390f35b6000610ade82611f63565b9050919050565b60158054610af290613481565b80601f0160208091040260200160405190810160405280929190818152602001828054610b1e90613481565b8015610b6b5780601f10610b4057610100808354040283529160200191610b6b565b820191906000526020600020905b815481529060010190602001808311610b4e57829003601f168201915b505050505081565b606060028054610b8290613481565b80601f0160208091040260200160405190810160405280929190818152602001828054610bae90613481565b8015610bfb5780601f10610bd057610100808354040283529160200191610bfb565b820191906000526020600020905b815481529060010190602001808311610bde57829003601f168201915b5050505050905090565b6000610c1082611fdd565b610c2557610c2463cf4700e460e01b612089565b5b6006600083815260200190815260200160002060000160009054906101000a900473ffffffffffffffffffffffffffffffffffffffff169050919050565b610c6f82826001612093565b5050565b60128054610c8090613481565b80601f0160208091040260200160405190810160405280929190818152602001828054610cac90613481565b8015610cf95780601f10610cce57610100808354040283529160200191610cf9565b820191906000526020600020905b815481529060010190602001808311610cdc57829003601f168201915b505050505081565b6000610d0b6121c2565b600154600054030390507fffffffffffffffffffffffffffffffffffffffffffffffffffffffffffffffff610d3e6121c7565b14610d4b57600854810190505b90565b610d566121ef565b600c60009054906101000a900460ff1615610da6576040517f08c379a0000000000000000000000000000000000000000000000000000000008152600401610d9d906134fe565b60405180910390fd5b80600e9081610db591906136ca565b5050565b6000610dc482612276565b905073ffffffffffffffffffffffffffffffffffffffff8473ffffffffffffffffffffffffffffffffffffffff161693508373ffffffffffffffffffffffffffffffffffffffff168173ffffffffffffffffffffffffffffffffffffffff1614610e3957610e3863a114810060e01b612089565b5b600080610e458461238f565b91509150610e5b8187610e566123b6565b6123be565b610e8657610e7086610e6b6123b6565b611d40565b610e8557610e846359c896be60e01b612089565b5b5b610e938686866001612402565b8015610e9e57600082555b600560008773ffffffffffffffffffffffffffffffffffffffff1673ffffffffffffffffffffffffffffffffffffffff168152602001908152602001600020600081546001900391905081905550600560008673ffffffffffffffffffffffffffffffffffffffff1673ffffffffffffffffffffffffffffffffffffffff1681526020019081526020016000206000815460010191905081905550610f6c85610f48888887612408565b7c020000000000000000000000000000000000000000000000000000000017612430565b600460008681526020019081526020016000208190555060007c0200000000000000000000000000000000000000000000000000000000841603610ff25760006001850190506000600460008381526020019081526020016000205403610ff0576000548114610fef578360046000838152602001908152602001600020819055505b5b505b600073ffffffffffffffffffffffffffffffffffffffff8673ffffffffffffffffffffffffffffffffffffffff161690508481887fddf252ad1be2c89b69c2b068fc378daa952ba7f163c4a11628f55a4df523b3ef600080a4600081036110645761106363ea553b3460e01b612089565b5b611071878787600161245b565b50505050505050565b6000600a6000838152602001908152602001600020600101549050919050565b601180546110a790613481565b80601f01602080910402602001604051908101604052809291908181526020018280546110d390613481565b80156111205780601f106110f557610100808354040283529160200191611120565b820191906000526020600020905b81548152906001019060200180831161110357829003601f168201915b505050505081565b6111318261107a565b61113a81612461565b6111448383612475565b50505050565b6014805461115790613481565b80601f016020809104026020016040519081016040528092919081815260200182805461118390613481565b80156111d05780601f106111a5576101008083540402835291602001916111d0565b820191906000526020600020905b8154815290600101906020018083116111b357829003601f168201915b505050505081565b6111e06121ef565b600c60009054906101000a900460ff1615611230576040517f08c379a0000000000000000000000000000000000000000000000000000000008152600401611227906134fe565b60405180910390fd5b806011908161123f91906136ca565b5050565b61124b612567565b73ffffffffffffffffffffffffffffffffffffffff168173ffffffffffffffffffffffffffffffffffffffff16146112af576040517f6697b23200000000000000000000000000000000000000000000000000000000815260040160405180910390fd5b6112b9828261256f565b505050565b600f80546112cb90613481565b80601f01602080910402602001604051908101604052809291908181526020018280546112f790613481565b80156113445780601f1061131957610100808354040283529160200191611344565b820191906000526020600020905b81548152906001019060200180831161132757829003601f168201915b505050505081565b61136783838360405180602001604052806000815250611b2a565b505050565b600061137782611fdd565b6113b6576040517f08c379a00000000000000000000000000000000000000000000000000000000081526004016113ad906137e8565b60405180910390fd5b601754600b60008481526020019081526020016000205410156113dc576000905061142d565b601854600b6000848152602001908152602001600020541015611402576001905061142d565b601954600b6000848152602001908152602001600020541015611428576002905061142d565b600390505b919050565b7ff99f54ba88613d946bdc79767a2d779e0d744d1b5b02b85576a5b76d8e37235561145c81612461565b81600b600085815260200190815260200160002054106114b1576040517f08c379a00000000000000000000000000000000000000000000000000000000081526004016114a89061387a565b60405180910390fd5b6114ba83611fdd565b6114f9576040517f08c379a00000000000000000000000000000000000000000000000000000000081526004016114f0906138e6565b60405180910390fd5b81600b600085815260200190815260200160002081905550505050565b600061152182612276565b9050919050565b60008073ffffffffffffffffffffffffffffffffffffffff168273ffffffffffffffffffffffffffffffffffffffff160361156e5761156d638f4eb60460e01b612089565b5b67ffffffffffffffff600560008473ffffffffffffffffffffffffffffffffffffffff1673ffffffffffffffffffffffffffffffffffffffff16815260200190815260200160002054169050919050565b6115c76121ef565b6115d16000612662565b565b60175481565b601380546115e690613481565b80601f016020809104026020016040519081016040528092919081815260200182805461161290613481565b801561165f5780601f106116345761010080835404028352916020019161165f565b820191906000526020600020905b81548152906001019060200180831161164257829003601f168201915b505050505081565b61166f6121ef565b600c60009054906101000a900460ff16156116bf576040517f08c379a00000000000000000000000000000000000000000000000000000000081526004016116b6906134fe565b60405180910390fd5b80601090816116ce91906136ca565b5050565b6000600960009054906101000a900473ffffffffffffffffffffffffffffffffffffffff16905090565b6117046121ef565b600c60009054906101000a900460ff1615611754576040517f08c379a000000000000000000000000000000000000000000000000000000000815260040161174b906134fe565b60405180910390fd5b80600f908161176391906136ca565b5050565b6000600a600084815260200190815260200160002060000160008373ffffffffffffffffffffffffffffffffffffffff1673ffffffffffffffffffffffffffffffffffffffff16815260200190815260200160002060009054906101000a900460ff16905092915050565b6060600380546117e190613481565b80601f016020809104026020016040519081016040528092919081815260200182805461180d90613481565b801561185a5780601f1061182f5761010080835404028352916020019161185a565b820191906000526020600020905b81548152906001019060200180831161183d57829003601f168201915b5050505050905090565b600d5461186f612728565b10801561187e57506000600d54115b6118bd576040517f08c379a00000000000000000000000000000000000000000000000000000000081526004016118b490613952565b60405180910390fd5b600d54816118c9612728565b6118d391906139a1565b111580156118e357506000600d54115b611922576040517f08c379a000000000000000000000000000000000000000000000000000000000815260040161191990613a21565b60405180910390fd5b806016546119309190613a41565b3414611971576040517f08c379a000000000000000000000000000000000000000000000000000000000815260040161196890613af5565b60405180910390fd5b61197b3382612771565b50565b60185481565b6000801b81565b80600760006119986123b6565b73ffffffffffffffffffffffffffffffffffffffff1673ffffffffffffffffffffffffffffffffffffffff16815260200190815260200160002060008473ffffffffffffffffffffffffffffffffffffffff1673ffffffffffffffffffffffffffffffffffffffff16815260200190815260200160002060006101000a81548160ff0219169083151502179055508173ffffffffffffffffffffffffffffffffffffffff16611a456123b6565b73ffffffffffffffffffffffffffffffffffffffff167f17307eab39ab6107e8899845ad3d59bd9653f200f220920489ca2b5937696c3183604051611a8a9190612bef565b60405180910390a35050565b60195481565b60108054611aa990613481565b80601f0160208091040260200160405190810160405280929190818152602001828054611ad590613481565b8015611b225780601f10611af757610100808354040283529160200191611b22565b820191906000526020600020905b815481529060010190602001808311611b0557829003601f168201915b505050505081565b611b35848484610db9565b60008373ffffffffffffffffffffffffffffffffffffffff163b14611b7657611b60848484846128f7565b611b7557611b7463d1a57ed660e01b612089565b5b5b50505050565b6060611b8782611fdd565b611b9c57611b9b63a14c4b5060e01b612089565b5b600060158054611bab90613481565b905003611bc75760405180602001604052806000815250611be9565b6015604051602001611bd99190613ba3565b6040516020818303038152906040525b9050919050565b600c60009054906101000a900460ff1681565b611c0b6121ef565b600c60009054906101000a900460ff1615611c5b576040517f08c379a0000000000000000000000000000000000000000000000000000000008152600401611c52906134fe565b60405180910390fd5b8360119081611c6a91906136ca565b508460109081611c7a91906136ca565b5085600f9081611c8a91906136ca565b5086600e9081611c9a91906136ca565b508260139081611caa91906136ca565b508160149081611cba91906136ca565b508060159081611cca91906136ca565b50611cd3611e60565b50505050505050565b7ff99f54ba88613d946bdc79767a2d779e0d744d1b5b02b85576a5b76d8e37235581565b611d098261107a565b611d1281612461565b611d1c838361256f565b50505050565b600d5481565b600b6020528060005260406000206000915090505481565b6000600760008473ffffffffffffffffffffffffffffffffffffffff1673ffffffffffffffffffffffffffffffffffffffff16815260200190815260200160002060008373ffffffffffffffffffffffffffffffffffffffff1673ffffffffffffffffffffffffffffffffffffffff16815260200190815260200160002060009054906101000a900460ff16905092915050565b60165481565b611de26121ef565b600073ffffffffffffffffffffffffffffffffffffffff168173ffffffffffffffffffffffffffffffffffffffff1603611e545760006040517f1e4fbdf7000000000000000000000000000000000000000000000000000000008152600401611e4b9190612d60565b60405180910390fd5b611e5d81612662565b50565b611e686121ef565b600c60009054906101000a900460ff1615611eb8576040517f08c379a0000000000000000000000000000000000000000000000000000000008152600401611eaf90613c06565b60405180910390fd5b6001600c60006101000a81548160ff021916908315150217905550565b600e8054611ee290613481565b80601f0160208091040260200160405190810160405280929190818152602001828054611f0e90613481565b8015611f5b5780601f10611f3057610100808354040283529160200191611f5b565b820191906000526020600020905b815481529060010190602001808311611f3e57829003601f168201915b505050505081565b60007f7965db0b000000000000000000000000000000000000000000000000000000007bffffffffffffffffffffffffffffffffffffffffffffffffffffffff1916827bffffffffffffffffffffffffffffffffffffffffffffffffffffffff19161480611fd65750611fd582612a26565b5b9050919050565b600081611fe86121c2565b1161208357611ff56121c7565b82111561201f576120186004600084815260200190815260200160002054612a90565b9050612084565b6000548210156120825760005b600060046000858152602001908152602001600020549150810361205b578261205490613c26565b925061202c565b60007c01000000000000000000000000000000000000000000000000000000008216149150505b5b5b919050565b8060005260046000fd5b600061209e83611516565b90508180156120e057508073ffffffffffffffffffffffffffffffffffffffff166120c76123b6565b73ffffffffffffffffffffffffffffffffffffffff1614155b1561210c576120f6816120f16123b6565b611d40565b61210b5761210a63cfb3b94260e01b612089565b5b5b836006600085815260200190815260200160002060000160006101000a81548173ffffffffffffffffffffffffffffffffffffffff021916908373ffffffffffffffffffffffffffffffffffffffff160217905550828473ffffffffffffffffffffffffffffffffffffffff168273ffffffffffffffffffffffffffffffffffffffff167f8c5be1e5ebec7d5bd14f71427d1e84f3dd0314c0f7b2291e5b200ac8c7c3b92560405160405180910390a450505050565b600090565b60007fffffffffffffffffffffffffffffffffffffffffffffffffffffffffffffffff905090565b6121f7612567565b73ffffffffffffffffffffffffffffffffffffffff166122156116d2565b73ffffffffffffffffffffffffffffffffffffffff161461227457612238612567565b6040517f118cdaa700000000000000000000000000000000000000000000000000000000815260040161226b9190612d60565b60405180910390fd5b565b6000816122816121c2565b1161237957600460008381526020019081526020016000205490506122a46121c7565b8211156122c9576122b481612a90565b61238a576122c863df2d9b4260e01b612089565b5b600081036123505760005482106122eb576122ea63df2d9b4260e01b612089565b5b5b6004600083600190039350838152602001908152602001600020549050600081031561234b5760007c01000000000000000000000000000000000000000000000000000000008216031561238a5761234a63df2d9b4260e01b612089565b5b6122ec565b60007c01000000000000000000000000000000000000000000000000000000008216031561238a575b61238963df2d9b4260e01b612089565b5b919050565b60008060006006600085815260200190815260200160002090508092508254915050915091565b600033905090565b600073ffffffffffffffffffffffffffffffffffffffff8316925073ffffffffffffffffffffffffffffffffffffffff821691508382148383141790509392505050565b50505050565b60008060e883901c905060e861241f868684612ad1565b62ffffff16901b9150509392505050565b600073ffffffffffffffffffffffffffffffffffffffff83169250814260a01b178317905092915050565b50505050565b6124728161246d612567565b612ada565b50565b60006124818383611767565b61255c576001600a600085815260200190815260200160002060000160008473ffffffffffffffffffffffffffffffffffffffff1673ffffffffffffffffffffffffffffffffffffffff16815260200190815260200160002060006101000a81548160ff0219169083151502179055506124f9612567565b73ffffffffffffffffffffffffffffffffffffffff168273ffffffffffffffffffffffffffffffffffffffff16847f2f8788117e7eff1d82e926ec794901d17c78024a50270940304540a733656f0d60405160405180910390a460019050612561565b600090505b92915050565b600033905090565b600061257b8383611767565b15612657576000600a600085815260200190815260200160002060000160008473ffffffffffffffffffffffffffffffffffffffff1673ffffffffffffffffffffffffffffffffffffffff16815260200190815260200160002060006101000a81548160ff0219169083151502179055506125f4612567565b73ffffffffffffffffffffffffffffffffffffffff168273ffffffffffffffffffffffffffffffffffffffff16847ff6391f5c32d9c69d2a47ea670b442974b53935d1edc7fd64eb21e047a839171b60405160405180910390a46001905061265c565b600090505b92915050565b6000600960009054906101000a900473ffffffffffffffffffffffffffffffffffffffff16905081600960006101000a81548173ffffffffffffffffffffffffffffffffffffffff021916908373ffffffffffffffffffffffffffffffffffffffff1602179055508173ffffffffffffffffffffffffffffffffffffffff168173ffffffffffffffffffffffffffffffffffffffff167f8be0079c531659141344cd1fd0a4f28419497f9722a3daafe3b4186f6b6457e060405160405180910390a35050565b60006127326121c2565b6000540390507fffffffffffffffffffffffffffffffffffffffffffffffffffffffffffffffff6127616121c7565b1461276e57600854810190505b90565b600080549050600082036127905761278f63b562e8dd60e01b612089565b5b61279d6000848385612402565b6127bd836127ae6000866000612408565b6127b785612b2b565b17612430565b6004600083815260200190815260200160002081905550600160406001901b178202600560008573ffffffffffffffffffffffffffffffffffffffff1673ffffffffffffffffffffffffffffffffffffffff16815260200190815260200160002060008282540192505081905550600073ffffffffffffffffffffffffffffffffffffffff8473ffffffffffffffffffffffffffffffffffffffff161690506000810361287557612874632e07630060e01b612089565b5b6000838301905060008390506128896121c7565b6001830311156128a4576128a36381647e3a60e01b612089565b5b5b808360007fddf252ad1be2c89b69c2b068fc378daa952ba7f163c4a11628f55a4df523b3ef600080a48181600101915081036128a557816000819055505050506128f2600084838561245b565b505050565b60008373ffffffffffffffffffffffffffffffffffffffff1663150b7a0261291d6123b6565b8786866040518563ffffffff1660e01b815260040161293f9493929190613ca4565b6020604051808303816000875af192505050801561297b57506040513d601f19601f820116820180604052508101906129789190613d05565b60015b6129d3573d80600081146129ab576040519150601f19603f3d011682016040523d82523d6000602084013e6129b0565b606091505b5060008151036129cb576129ca63d1a57ed660e01b612089565b5b805181602001fd5b63150b7a0260e01b7bffffffffffffffffffffffffffffffffffffffffffffffffffffffff1916817bffffffffffffffffffffffffffffffffffffffffffffffffffffffff191614915050949350505050565b60007f01ffc9a7000000000000000000000000000000000000000000000000000000007bffffffffffffffffffffffffffffffffffffffffffffffffffffffff1916827bffffffffffffffffffffffffffffffffffffffffffffffffffffffff1916149050919050565b60007c0100000000000000000000000000000000000000000000000000000000821673ffffffffffffffffffffffffffffffffffffffff8316119050919050565b60009392505050565b612ae48282611767565b612b275780826040517fe2517d3f000000000000000000000000000000000000000000000000000000008152600401612b1e929190613d32565b60405180910390fd5b5050565b60006001821460e11b9050919050565b6000604051905090565b600080fd5b600080fd5b60007fffffffff0000000000000000000000000000000000000000000000000000000082169050919050565b612b8481612b4f565b8114612b8f57600080fd5b50565b600081359050612ba181612b7b565b92915050565b600060208284031215612bbd57612bbc612b45565b5b6000612bcb84828501612b92565b91505092915050565b60008115159050919050565b612be981612bd4565b82525050565b6000602082019050612c046000830184612be0565b92915050565b600081519050919050565b600082825260208201905092915050565b60005b83811015612c44578082015181840152602081019050612c29565b60008484015250505050565b6000601f19601f8301169050919050565b6000612c6c82612c0a565b612c768185612c15565b9350612c86818560208601612c26565b612c8f81612c50565b840191505092915050565b60006020820190508181036000830152612cb48184612c61565b905092915050565b6000819050919050565b612ccf81612cbc565b8114612cda57600080fd5b50565b600081359050612cec81612cc6565b92915050565b600060208284031215612d0857612d07612b45565b5b6000612d1684828501612cdd565b91505092915050565b600073ffffffffffffffffffffffffffffffffffffffff82169050919050565b6000612d4a82612d1f565b9050919050565b612d5a81612d3f565b82525050565b6000602082019050612d756000830184612d51565b92915050565b612d8481612d3f565b8114612d8f57600080fd5b50565b600081359050612da181612d7b565b92915050565b60008060408385031215612dbe57612dbd612b45565b5b6000612dcc85828601612d92565b9250506020612ddd85828601612cdd565b9150509250929050565b612df081612cbc565b82525050565b6000602082019050612e0b6000830184612de7565b92915050565b600080fd5b600080fd5b7f4e487b7100000000000000000000000000000000000000000000000000000000600052604160045260246000fd5b612e5382612c50565b810181811067ffffffffffffffff82111715612e7257612e71612e1b565b5b80604052505050565b6000612e85612b3b565b9050612e918282612e4a565b919050565b600067ffffffffffffffff821115612eb157612eb0612e1b565b5b612eba82612c50565b9050602081019050919050565b82818337600083830152505050565b6000612ee9612ee484612e96565b612e7b565b905082815260208101848484011115612f0557612f04612e16565b5b612f10848285612ec7565b509392505050565b600082601f830112612f2d57612f2c612e11565b5b8135612f3d848260208601612ed6565b91505092915050565b600060208284031215612f5c57612f5b612b45565b5b600082013567ffffffffffffffff811115612f7a57612f79612b4a565b5b612f8684828501612f18565b91505092915050565b600080600060608486031215612fa857612fa7612b45565b5b6000612fb686828701612d92565b9350506020612fc786828701612d92565b9250506040612fd886828701612cdd565b9150509250925092565b6000819050919050565b612ff581612fe2565b811461300057600080fd5b50565b60008135905061301281612fec565b92915050565b60006020828403121561302e5761302d612b45565b5b600061303c84828501613003565b91505092915050565b61304e81612fe2565b82525050565b60006020820190506130696000830184613045565b92915050565b6000806040838503121561308657613085612b45565b5b600061309485828601613003565b92505060206130a585828601612d92565b9150509250929050565b600080604083850312156130c6576130c5612b45565b5b60006130d485828601612cdd565b92505060206130e585828601612cdd565b9150509250929050565b60006020828403121561310557613104612b45565b5b600061311384828501612d92565b91505092915050565b61312581612bd4565b811461313057600080fd5b50565b6000813590506131428161311c565b92915050565b6000806040838503121561315f5761315e612b45565b5b600061316d85828601612d92565b925050602061317e85828601613133565b9150509250929050565b600067ffffffffffffffff8211156131a3576131a2612e1b565b5b6131ac82612c50565b9050602081019050919050565b60006131cc6131c784613188565b612e7b565b9050828152602081018484840111156131e8576131e7612e16565b5b6131f3848285612ec7565b509392505050565b600082601f8301126132105761320f612e11565b5b81356132208482602086016131b9565b91505092915050565b6000806000806080858703121561324357613242612b45565b5b600061325187828801612d92565b945050602061326287828801612d92565b935050604061327387828801612cdd565b925050606085013567ffffffffffffffff81111561329457613293612b4a565b5b6132a0878288016131fb565b91505092959194509250565b600080600080600080600060e0888a0312156132cb576132ca612b45565b5b600088013567ffffffffffffffff8111156132e9576132e8612b4a565b5b6132f58a828b01612f18565b975050602088013567ffffffffffffffff81111561331657613315612b4a565b5b6133228a828b01612f18565b965050604088013567ffffffffffffffff81111561334357613342612b4a565b5b61334f8a828b01612f18565b955050606088013567ffffffffffffffff8111156133705761336f612b4a565b5b61337c8a828b01612f18565b945050608088013567ffffffffffffffff81111561339d5761339c612b4a565b5b6133a98a828b01612f18565b93505060a088013567ffffffffffffffff8111156133ca576133c9612b4a565b5b6133d68a828b01612f18565b92505060c088013567ffffffffffffffff8111156133f7576133f6612b4a565b5b6134038a828b01612f18565b91505092959891949750929550565b6000806040838503121561342957613428612b45565b5b600061343785828601612d92565b925050602061344885828601612d92565b9150509250929050565b7f4e487b7100000000000000000000000000000000000000000000000000000000600052602260045260246000fd5b6000600282049050600182168061349957607f821691505b6020821081036134ac576134ab613452565b5b50919050565b7f6e667420616c7265616479206c6f636b65640000000000000000000000000000600082015250565b60006134e8601283612c15565b91506134f3826134b2565b602082019050919050565b60006020820190508181036000830152613517816134db565b9050919050565b60008190508160005260206000209050919050565b60006020601f8301049050919050565b600082821b905092915050565b6000600883026135807fffffffffffffffffffffffffffffffffffffffffffffffffffffffffffffffff82613543565b61358a8683613543565b95508019841693508086168417925050509392505050565b6000819050919050565b60006135c76135c26135bd84612cbc565b6135a2565b612cbc565b9050919050565b6000819050919050565b6135e1836135ac565b6135f56135ed826135ce565b848454613550565b825550505050565b600090565b61360a6135fd565b6136158184846135d8565b505050565b5b818110156136395761362e600082613602565b60018101905061361b565b5050565b601f82111561367e5761364f8161351e565b61365884613533565b81016020851015613667578190505b61367b61367385613533565b83018261361a565b50505b505050565b600082821c905092915050565b60006136a160001984600802613683565b1980831691505092915050565b60006136ba8383613690565b9150826002028217905092915050565b6136d382612c0a565b67ffffffffffffffff8111156136ec576136eb612e1b565b5b6136f68254613481565b61370182828561363d565b600060209050601f8311600181146137345760008415613722578287015190505b61372c85826136ae565b865550613794565b601f1984166137428661351e565b60005b8281101561376a57848901518255600182019150602085019450602081019050613745565b868310156137875784890151613783601f891682613690565b8355505b6001600288020188555050505b505050505050565b7f746f6b656e20646f6573206e6f74206578697374000000000000000000000000600082015250565b60006137d2601483612c15565b91506137dd8261379c565b602082019050919050565b60006020820190508181036000830152613801816137c5565b9050919050565b7f63616e6e6f7420726564756365207468652073636f7265626f617264206d757360008201527f742062652062696767657220746f74616c000000000000000000000000000000602082015250565b6000613864603183612c15565b915061386f82613808565b604082019050919050565b6000602082019050818103600083015261389381613857565b9050919050565b7f6e6674206e6f7420657869737473000000000000000000000000000000000000600082015250565b60006138d0600e83612c15565b91506138db8261389a565b602082019050919050565b600060208201905081810360008301526138ff816138c3565b9050919050565b7f6e6f206d6f726520746f6b656e7320746f206d696e7400000000000000000000600082015250565b600061393c601683612c15565b915061394782613906565b602082019050919050565b6000602082019050818103600083015261396b8161392f565b9050919050565b7f4e487b7100000000000000000000000000000000000000000000000000000000600052601160045260246000fd5b60006139ac82612cbc565b91506139b783612cbc565b92508282019050808211156139cf576139ce613972565b5b92915050565b7f63616e6e6f74206d696e74206d6f7265207468616e206d617820737570706c79600082015250565b6000613a0b602083612c15565b9150613a16826139d5565b602082019050919050565b60006020820190508181036000830152613a3a816139fe565b9050919050565b6000613a4c82612cbc565b9150613a5783612cbc565b9250828202613a6581612cbc565b91508282048414831517613a7c57613a7b613972565b5b5092915050565b7f706c656173652070617920726571756972656420616d6f756e7420746f206d6960008201527f6e74000000000000000000000000000000000000000000000000000000000000602082015250565b6000613adf602283612c15565b9150613aea82613a83565b604082019050919050565b60006020820190508181036000830152613b0e81613ad2565b9050919050565b600081905092915050565b60008154613b2d81613481565b613b378186613b15565b94506001821660008114613b525760018114613b6757613b9a565b60ff1983168652811515820286019350613b9a565b613b708561351e565b60005b83811015613b9257815481890152600182019150602081019050613b73565b838801955050505b50505092915050565b6000613baf8284613b20565b915081905092915050565b7f616c7265616479206c6f636b6564000000000000000000000000000000000000600082015250565b6000613bf0600e83612c15565b9150613bfb82613bba565b602082019050919050565b60006020820190508181036000830152613c1f81613be3565b9050919050565b6000613c3182612cbc565b915060008203613c4457613c43613972565b5b600182039050919050565b600081519050919050565b600082825260208201905092915050565b6000613c7682613c4f565b613c808185613c5a565b9350613c90818560208601612c26565b613c9981612c50565b840191505092915050565b6000608082019050613cb96000830187612d51565b613cc66020830186612d51565b613cd36040830185612de7565b8181036060830152613ce58184613c6b565b905095945050505050565b600081519050613cff81612b7b565b92915050565b600060208284031215613d1b57613d1a612b45565b5b6000613d2984828501613cf0565b91505092915050565b6000604082019050613d476000830185612d51565b613d546020830184613045565b939250505056fea2646970667358221220b40ae9336cf379a4c55860e200fadf0d6ba7df945c738a8e2e10ea998c5a0a8f64736f6c63430008180033",
  "linkReferences": {},
  "deployedLinkReferences": {}
}